{
  "contractName": "CryptoPlayers",
  "abi": [
    {
      "constant": true,
      "inputs": [
        {
          "name": "playerId",
          "type": "uint256"
        }
      ],
      "name": "getTeam",
      "outputs": [
        {
          "name": "",
          "type": "uint256"
        }
      ],
      "payable": false,
      "stateMutability": "view",
      "type": "function"
    },
    {
      "constant": true,
      "inputs": [
        {
          "name": "interfaceId",
          "type": "bytes4"
        }
      ],
      "name": "supportsInterface",
      "outputs": [
        {
          "name": "",
          "type": "bool"
        }
      ],
      "payable": false,
      "stateMutability": "view",
      "type": "function"
    },
    {
      "constant": false,
      "inputs": [],
      "name": "renounceURIer",
      "outputs": [],
      "payable": false,
      "stateMutability": "nonpayable",
      "type": "function"
    },
    {
      "constant": true,
      "inputs": [],
      "name": "name",
      "outputs": [
        {
          "name": "",
          "type": "string"
        }
      ],
      "payable": false,
      "stateMutability": "view",
      "type": "function"
    },
    {
      "constant": true,
      "inputs": [
        {
          "name": "tokenId",
          "type": "uint256"
        }
      ],
      "name": "getApproved",
      "outputs": [
        {
          "name": "",
          "type": "address"
        }
      ],
      "payable": false,
      "stateMutability": "view",
      "type": "function"
    },
    {
      "constant": false,
      "inputs": [
        {
          "name": "to",
          "type": "address"
        },
        {
          "name": "tokenId",
          "type": "uint256"
        }
      ],
      "name": "approve",
      "outputs": [],
      "payable": false,
      "stateMutability": "nonpayable",
      "type": "function"
    },
    {
      "constant": true,
      "inputs": [],
      "name": "totalSupply",
      "outputs": [
        {
          "name": "",
          "type": "uint256"
        }
      ],
      "payable": false,
      "stateMutability": "view",
      "type": "function"
    },
    {
      "constant": false,
      "inputs": [
        {
          "name": "from",
          "type": "address"
        },
        {
          "name": "to",
          "type": "address"
        },
        {
          "name": "playerId",
          "type": "uint256"
        }
      ],
      "name": "transferFrom",
      "outputs": [],
      "payable": false,
      "stateMutability": "nonpayable",
      "type": "function"
    },
    {
      "constant": true,
      "inputs": [
        {
          "name": "playerId",
          "type": "uint256"
        }
      ],
      "name": "getBirth",
      "outputs": [
        {
          "name": "",
          "type": "uint16"
        }
      ],
      "payable": false,
      "stateMutability": "view",
      "type": "function"
    },
    {
      "constant": true,
      "inputs": [
        {
          "name": "playerId",
          "type": "uint256"
        }
      ],
      "name": "getEndurance",
      "outputs": [
        {
          "name": "",
          "type": "uint16"
        }
      ],
      "payable": false,
      "stateMutability": "view",
      "type": "function"
    },
    {
      "constant": true,
      "inputs": [
        {
          "name": "owner",
          "type": "address"
        },
        {
          "name": "index",
          "type": "uint256"
        }
      ],
      "name": "tokenOfOwnerByIndex",
      "outputs": [
        {
          "name": "",
          "type": "uint256"
        }
      ],
      "payable": false,
      "stateMutability": "view",
      "type": "function"
    },
    {
      "constant": false,
      "inputs": [
        {
          "name": "uri",
          "type": "string"
        }
      ],
      "name": "setBaseTokenURI",
      "outputs": [],
      "payable": false,
      "stateMutability": "nonpayable",
      "type": "function"
    },
    {
      "constant": false,
      "inputs": [
        {
          "name": "from",
          "type": "address"
        },
        {
          "name": "to",
          "type": "address"
        },
        {
          "name": "tokenId",
          "type": "uint256"
        }
      ],
      "name": "safeTransferFrom",
      "outputs": [],
      "payable": false,
      "stateMutability": "nonpayable",
      "type": "function"
    },
    {
      "constant": true,
      "inputs": [
        {
          "name": "playerId",
          "type": "uint256"
        }
      ],
      "name": "getSpeed",
      "outputs": [
        {
          "name": "",
          "type": "uint16"
        }
      ],
      "payable": false,
      "stateMutability": "view",
      "type": "function"
    },
    {
      "constant": true,
      "inputs": [
        {
          "name": "index",
          "type": "uint256"
        }
      ],
      "name": "tokenByIndex",
      "outputs": [
        {
          "name": "",
          "type": "uint256"
        }
      ],
      "payable": false,
      "stateMutability": "view",
      "type": "function"
    },
    {
      "constant": true,
      "inputs": [
        {
          "name": "playerId",
          "type": "uint256"
        }
      ],
      "name": "getDefence",
      "outputs": [
        {
          "name": "",
          "type": "uint16"
        }
      ],
      "payable": false,
      "stateMutability": "view",
      "type": "function"
    },
    {
      "constant": true,
      "inputs": [
        {
          "name": "playerId",
          "type": "uint256"
        }
      ],
      "name": "getPass",
      "outputs": [
        {
          "name": "",
          "type": "uint16"
        }
      ],
      "payable": false,
      "stateMutability": "view",
      "type": "function"
    },
    {
      "constant": true,
      "inputs": [
        {
          "name": "account",
          "type": "address"
        }
      ],
      "name": "isTeamsContract",
      "outputs": [
        {
          "name": "",
          "type": "bool"
        }
      ],
      "payable": false,
      "stateMutability": "view",
      "type": "function"
    },
    {
      "constant": true,
      "inputs": [
        {
          "name": "tokenId",
          "type": "uint256"
        }
      ],
      "name": "ownerOf",
      "outputs": [
        {
          "name": "",
          "type": "address"
        }
      ],
      "payable": false,
      "stateMutability": "view",
      "type": "function"
    },
    {
      "constant": true,
      "inputs": [
        {
          "name": "playerId",
          "type": "uint256"
        }
      ],
      "name": "getShoot",
      "outputs": [
        {
          "name": "",
          "type": "uint16"
        }
      ],
      "payable": false,
      "stateMutability": "view",
      "type": "function"
    },
    {
      "constant": true,
      "inputs": [
        {
          "name": "playerId",
          "type": "uint256"
        }
      ],
      "name": "getGenome",
      "outputs": [
        {
          "name": "",
          "type": "uint88"
        }
      ],
      "payable": false,
      "stateMutability": "view",
      "type": "function"
    },
    {
      "constant": true,
      "inputs": [
        {
          "name": "playerId",
          "type": "uint256"
        }
      ],
      "name": "getName",
      "outputs": [
        {
          "name": "",
          "type": "string"
        }
      ],
      "payable": false,
      "stateMutability": "view",
      "type": "function"
    },
    {
      "constant": true,
      "inputs": [
        {
          "name": "owner",
          "type": "address"
        }
      ],
      "name": "balanceOf",
      "outputs": [
        {
          "name": "",
          "type": "uint256"
        }
      ],
      "payable": false,
      "stateMutability": "view",
      "type": "function"
    },
    {
      "constant": false,
      "inputs": [],
      "name": "renounceTeamsContract",
      "outputs": [],
      "payable": false,
      "stateMutability": "nonpayable",
      "type": "function"
    },
    {
      "constant": false,
      "inputs": [
        {
          "name": "playerId",
          "type": "uint256"
        },
        {
          "name": "teamId",
          "type": "uint256"
        }
      ],
      "name": "setTeam",
      "outputs": [],
      "payable": false,
      "stateMutability": "nonpayable",
      "type": "function"
    },
    {
      "constant": true,
      "inputs": [],
      "name": "symbol",
      "outputs": [
        {
          "name": "",
          "type": "string"
        }
      ],
      "payable": false,
      "stateMutability": "view",
      "type": "function"
    },
    {
      "constant": false,
      "inputs": [
        {
          "name": "account",
          "type": "address"
        }
      ],
      "name": "addMinter",
      "outputs": [],
      "payable": false,
      "stateMutability": "nonpayable",
      "type": "function"
    },
    {
      "constant": false,
      "inputs": [],
      "name": "renounceMinter",
      "outputs": [],
      "payable": false,
      "stateMutability": "nonpayable",
      "type": "function"
    },
    {
      "constant": false,
      "inputs": [
        {
          "name": "account",
          "type": "address"
        }
      ],
      "name": "addTeamsContract",
      "outputs": [],
      "payable": false,
      "stateMutability": "nonpayable",
      "type": "function"
    },
    {
      "constant": false,
      "inputs": [
        {
          "name": "to",
          "type": "address"
        },
        {
          "name": "approved",
          "type": "bool"
        }
      ],
      "name": "setApprovalForAll",
      "outputs": [],
      "payable": false,
      "stateMutability": "nonpayable",
      "type": "function"
    },
    {
      "constant": true,
      "inputs": [
        {
          "name": "account",
          "type": "address"
        }
      ],
      "name": "isMinter",
      "outputs": [
        {
          "name": "",
          "type": "bool"
        }
      ],
      "payable": false,
      "stateMutability": "view",
      "type": "function"
    },
    {
      "constant": false,
      "inputs": [
        {
          "name": "from",
          "type": "address"
        },
        {
          "name": "to",
          "type": "address"
        },
        {
          "name": "tokenId",
          "type": "uint256"
        },
        {
          "name": "_data",
          "type": "bytes"
        }
      ],
      "name": "safeTransferFrom",
      "outputs": [],
      "payable": false,
      "stateMutability": "nonpayable",
      "type": "function"
    },
    {
      "constant": true,
      "inputs": [],
      "name": "getBaseTokenURI",
      "outputs": [
        {
          "name": "",
          "type": "string"
        }
      ],
      "payable": false,
      "stateMutability": "view",
      "type": "function"
    },
    {
      "constant": true,
      "inputs": [
        {
          "name": "account",
          "type": "address"
        }
      ],
      "name": "isURIer",
      "outputs": [
        {
          "name": "",
          "type": "bool"
        }
      ],
      "payable": false,
      "stateMutability": "view",
      "type": "function"
    },
    {
      "constant": true,
      "inputs": [
        {
          "name": "tokenId",
          "type": "uint256"
        }
      ],
      "name": "tokenURI",
      "outputs": [
        {
          "name": "",
          "type": "string"
        }
      ],
      "payable": false,
      "stateMutability": "view",
      "type": "function"
    },
    {
      "constant": true,
      "inputs": [
        {
          "name": "name",
          "type": "string"
        }
      ],
      "name": "getPlayerId",
      "outputs": [
        {
          "name": "",
          "type": "uint256"
        }
      ],
      "payable": false,
      "stateMutability": "view",
      "type": "function"
    },
    {
      "constant": false,
      "inputs": [
        {
          "name": "to",
          "type": "address"
        },
        {
          "name": "name",
          "type": "string"
        }
      ],
      "name": "mint",
      "outputs": [],
      "payable": false,
      "stateMutability": "nonpayable",
      "type": "function"
    },
    {
      "constant": true,
      "inputs": [
        {
          "name": "owner",
          "type": "address"
        },
        {
          "name": "operator",
          "type": "address"
        }
      ],
      "name": "isApprovedForAll",
      "outputs": [
        {
          "name": "",
          "type": "bool"
        }
      ],
      "payable": false,
      "stateMutability": "view",
      "type": "function"
    },
    {
      "constant": false,
      "inputs": [
        {
          "name": "account",
          "type": "address"
        }
      ],
      "name": "addURIer",
      "outputs": [],
      "payable": false,
      "stateMutability": "nonpayable",
      "type": "function"
    },
    {
      "anonymous": false,
      "inputs": [
        {
          "indexed": true,
          "name": "account",
          "type": "address"
        }
      ],
      "name": "URIerAdded",
      "type": "event"
    },
    {
      "anonymous": false,
      "inputs": [
        {
          "indexed": true,
          "name": "account",
          "type": "address"
        }
      ],
      "name": "URIerRemoved",
      "type": "event"
    },
    {
      "anonymous": false,
      "inputs": [
        {
          "indexed": true,
          "name": "account",
          "type": "address"
        }
      ],
      "name": "TeamsContractAdded",
      "type": "event"
    },
    {
      "anonymous": false,
      "inputs": [
        {
          "indexed": true,
          "name": "account",
          "type": "address"
        }
      ],
      "name": "TeamsContractRemoved",
      "type": "event"
    },
    {
      "anonymous": false,
      "inputs": [
        {
          "indexed": true,
          "name": "account",
          "type": "address"
        }
      ],
      "name": "MinterAdded",
      "type": "event"
    },
    {
      "anonymous": false,
      "inputs": [
        {
          "indexed": true,
          "name": "account",
          "type": "address"
        }
      ],
      "name": "MinterRemoved",
      "type": "event"
    },
    {
      "anonymous": false,
      "inputs": [
        {
          "indexed": true,
          "name": "from",
          "type": "address"
        },
        {
          "indexed": true,
          "name": "to",
          "type": "address"
        },
        {
          "indexed": true,
          "name": "tokenId",
          "type": "uint256"
        }
      ],
      "name": "Transfer",
      "type": "event"
    },
    {
      "anonymous": false,
      "inputs": [
        {
          "indexed": true,
          "name": "owner",
          "type": "address"
        },
        {
          "indexed": true,
          "name": "approved",
          "type": "address"
        },
        {
          "indexed": true,
          "name": "tokenId",
          "type": "uint256"
        }
      ],
      "name": "Approval",
      "type": "event"
    },
    {
      "anonymous": false,
      "inputs": [
        {
          "indexed": true,
          "name": "owner",
          "type": "address"
        },
        {
          "indexed": true,
          "name": "operator",
          "type": "address"
        },
        {
          "indexed": false,
          "name": "approved",
          "type": "bool"
        }
      ],
      "name": "ApprovalForAll",
      "type": "event"
    }
  ],
  "bytecode": "0x60806040526040805190810160405280600481526020017f43505330000000000000000000000000000000000000000000000000000000008152506040805190810160405280600481526020017f43535030000000000000000000000000000000000000000000000000000000008152508181620000af6301ffc9a77c010000000000000000000000000000000000000000000000000000000002620001f0640100000000026401000000009004565b620000ec6380ac58cd7c010000000000000000000000000000000000000000000000000000000002620001f0640100000000026401000000009004565b6200012963780e9d637c010000000000000000000000000000000000000000000000000000000002620001f0640100000000026401000000009004565b6200014333620002ae640100000000026401000000009004565b6200015d3362000318640100000000026401000000009004565b81600d90805190602001906200017592919062000544565b5080600e90805190602001906200018e92919062000544565b50620001cc635b5e139f7c010000000000000000000000000000000000000000000000000000000002620001f0640100000000026401000000009004565b5050620001e83362000382640100000000026401000000009004565b5050620005f3565b63ffffffff7c010000000000000000000000000000000000000000000000000000000002817bffffffffffffffffffffffffffffffffffffffffffffffffffffffff1916141515156200024257600080fd5b6001600080837bffffffffffffffffffffffffffffffffffffffffffffffffffffffff19167bffffffffffffffffffffffffffffffffffffffffffffffffffffffff1916815260200190815260200160002060006101000a81548160ff02191690831515021790555050565b620002d281600a620003ec6401000000000262003235179091906401000000009004565b8073ffffffffffffffffffffffffffffffffffffffff167f6ae172837ea30b801fbfcdd4108aa1d5bf8ff775444fd70256b44e6bf3dfc3f660405160405180910390a250565b6200033c81600b620003ec6401000000000262003235179091906401000000009004565b8073ffffffffffffffffffffffffffffffffffffffff167fd53502d3968ba02912985b5340be2f60593fe43902b38947cf00f05d6931820560405160405180910390a250565b620003a6816010620003ec6401000000000262003235179091906401000000009004565b8073ffffffffffffffffffffffffffffffffffffffff167fd3c102e3f9524b89c0fca09d73251309845dd243c31439c884168350c99b347e60405160405180910390a250565b600073ffffffffffffffffffffffffffffffffffffffff168173ffffffffffffffffffffffffffffffffffffffff16141515156200042957600080fd5b620004448282620004af640100000000026401000000009004565b1515156200045157600080fd5b60018260000160008373ffffffffffffffffffffffffffffffffffffffff1673ffffffffffffffffffffffffffffffffffffffff16815260200190815260200160002060006101000a81548160ff0219169083151502179055505050565b60008073ffffffffffffffffffffffffffffffffffffffff168273ffffffffffffffffffffffffffffffffffffffff1614151515620004ed57600080fd5b8260000160008373ffffffffffffffffffffffffffffffffffffffff1673ffffffffffffffffffffffffffffffffffffffff16815260200190815260200160002060009054906101000a900460ff16905092915050565b828054600181600116156101000203166002900490600052602060002090601f016020900481019282601f106200058757805160ff1916838001178555620005b8565b82800160010185558215620005b8579182015b82811115620005b75782518255916020019190600101906200059a565b5b509050620005c79190620005cb565b5090565b620005f091905b80821115620005ec576000816000905550600101620005d2565b5090565b90565b61381e80620006036000396000f3006080604052600436106101e2576000357c0100000000000000000000000000000000000000000000000000000000900463ffffffff1680628e0f1b146101e757806301ffc9a71461022857806303656aef1461028c57806306fdde03146102a3578063081812fc14610333578063095ea7b3146103a057806318160ddd146103ed57806323b872dd1461041857806325557e0214610485578063258e5d90146104ce5780632f745c591461051757806330176e131461057857806342842e0e146105e15780634b93f7531461064e5780634f6ccce71461069757806351585b49146106d857806355a6f86f1461072157806361b65f401461076a5780636352211e146107c557806365b4b4761461083257806365d6759a1461087b5780636b8ff574146108d657806370a082311461097c57806371b3f0a9146109d35780638c5a0a2e146109ea57806395d89b4114610a21578063983b2d5614610ab15780639865027514610af45780639c13a11214610b0b578063a22cb46514610b4e578063aa271e1a14610b9d578063b88d4fde14610bf8578063bdc32be014610cab578063c5590a5914610d3b578063c87b56dd14610d96578063caa03a3e14610e3c578063d0def52114610eb9578063e985e9c514610f42578063f82b8d4314610fbd575b600080fd5b3480156101f357600080fd5b5061021260048036038101908080359060200190929190505050611000565b6040518082815260200191505060405180910390f35b34801561023457600080fd5b5061027260048036038101908080357bffffffffffffffffffffffffffffffffffffffffffffffffffffffff19169060200190929190505050611031565b604051808215151515815260200191505060405180910390f35b34801561029857600080fd5b506102a1611098565b005b3480156102af57600080fd5b506102b86110a3565b6040518080602001828103825283818151815260200191508051906020019080838360005b838110156102f85780820151818401526020810190506102dd565b50505050905090810190601f1680156103255780820380516001836020036101000a031916815260200191505b509250505060405180910390f35b34801561033f57600080fd5b5061035e60048036038101908080359060200190929190505050611145565b604051808273ffffffffffffffffffffffffffffffffffffffff1673ffffffffffffffffffffffffffffffffffffffff16815260200191505060405180910390f35b3480156103ac57600080fd5b506103eb600480360381019080803573ffffffffffffffffffffffffffffffffffffffff16906020019092919080359060200190929190505050611196565b005b3480156103f957600080fd5b506104026112db565b6040518082815260200191505060405180910390f35b34801561042457600080fd5b50610483600480360381019080803573ffffffffffffffffffffffffffffffffffffffff169060200190929190803573ffffffffffffffffffffffffffffffffffffffff169060200190929190803590602001909291905050506112e8565b005b34801561049157600080fd5b506104b060048036038101908080359060200190929190505050611311565b604051808261ffff1661ffff16815260200191505060405180910390f35b3480156104da57600080fd5b506104f960048036038101908080359060200190929190505050611360565b604051808261ffff1661ffff16815260200191505060405180910390f35b34801561052357600080fd5b50610562600480360381019080803573ffffffffffffffffffffffffffffffffffffffff169060200190929190803590602001909291905050506113c4565b6040518082815260200191505060405180910390f35b34801561058457600080fd5b506105df600480360381019080803590602001908201803590602001908080601f016020809104026020016040519081016040528093929190818152602001838380828437820191505050505050919291929050505061143b565b005b3480156105ed57600080fd5b5061064c600480360381019080803573ffffffffffffffffffffffffffffffffffffffff169060200190929190803573ffffffffffffffffffffffffffffffffffffffff16906020019092919080359060200190929190505050611469565b005b34801561065a57600080fd5b506106796004803603810190808035906020019092919050505061148a565b604051808261ffff1661ffff16815260200191505060405180910390f35b3480156106a357600080fd5b506106c2600480360381019080803590602001909291905050506114ee565b6040518082815260200191505060405180910390f35b3480156106e457600080fd5b5061070360048036038101908080359060200190929190505050611526565b604051808261ffff1661ffff16815260200191505060405180910390f35b34801561072d57600080fd5b5061074c6004803603810190808035906020019092919050505061158a565b604051808261ffff1661ffff16815260200191505060405180910390f35b34801561077657600080fd5b506107ab600480360381019080803573ffffffffffffffffffffffffffffffffffffffff1690602001909291905050506115ee565b604051808215151515815260200191505060405180910390f35b3480156107d157600080fd5b506107f06004803603810190808035906020019092919050505061160b565b604051808273ffffffffffffffffffffffffffffffffffffffff1673ffffffffffffffffffffffffffffffffffffffff16815260200191505060405180910390f35b34801561083e57600080fd5b5061085d60048036038101908080359060200190929190505050611689565b604051808261ffff1661ffff16815260200191505060405180910390f35b34801561088757600080fd5b506108a6600480360381019080803590602001909291905050506116ed565b60405180826affffffffffffffffffffff166affffffffffffffffffffff16815260200191505060405180910390f35b3480156108e257600080fd5b5061090160048036038101908080359060200190929190505050611738565b6040518080602001828103825283818151815260200191508051906020019080838360005b83811015610941578082015181840152602081019050610926565b50505050905090810190601f16801561096e5780820380516001836020036101000a031916815260200191505b509250505060405180910390f35b34801561098857600080fd5b506109bd600480360381019080803573ffffffffffffffffffffffffffffffffffffffff169060200190929190505050611804565b6040518082815260200191505060405180910390f35b3480156109df57600080fd5b506109e8611888565b005b3480156109f657600080fd5b50610a1f6004803603810190808035906020019092919080359060200190929190505050611893565b005b348015610a2d57600080fd5b50610a366118d7565b6040518080602001828103825283818151815260200191508051906020019080838360005b83811015610a76578082015181840152602081019050610a5b565b50505050905090810190601f168015610aa35780820380516001836020036101000a031916815260200191505b509250505060405180910390f35b348015610abd57600080fd5b50610af2600480360381019080803573ffffffffffffffffffffffffffffffffffffffff169060200190929190505050611979565b005b348015610b0057600080fd5b50610b09611999565b005b348015610b1757600080fd5b50610b4c600480360381019080803573ffffffffffffffffffffffffffffffffffffffff1690602001909291905050506119a4565b005b348015610b5a57600080fd5b50610b9b600480360381019080803573ffffffffffffffffffffffffffffffffffffffff1690602001909291908035151590602001909291905050506119c4565b005b348015610ba957600080fd5b50610bde600480360381019080803573ffffffffffffffffffffffffffffffffffffffff169060200190929190505050611b00565b604051808215151515815260200191505060405180910390f35b348015610c0457600080fd5b50610ca9600480360381019080803573ffffffffffffffffffffffffffffffffffffffff169060200190929190803573ffffffffffffffffffffffffffffffffffffffff16906020019092919080359060200190929190803590602001908201803590602001908080601f0160208091040260200160405190810160405280939291908181526020018383808284378201915050505050509192919290505050611b1d565b005b348015610cb757600080fd5b50610cc0611b45565b6040518080602001828103825283818151815260200191508051906020019080838360005b83811015610d00578082015181840152602081019050610ce5565b50505050905090810190601f168015610d2d5780820380516001836020036101000a031916815260200191505b509250505060405180910390f35b348015610d4757600080fd5b50610d7c600480360381019080803573ffffffffffffffffffffffffffffffffffffffff169060200190929190505050611be7565b604051808215151515815260200191505060405180910390f35b348015610da257600080fd5b50610dc160048036038101908080359060200190929190505050611c04565b6040518080602001828103825283818151815260200191508051906020019080838360005b83811015610e01578082015181840152602081019050610de6565b50505050905090810190601f168015610e2e5780820380516001836020036101000a031916815260200191505b509250505060405180910390f35b348015610e4857600080fd5b50610ea3600480360381019080803590602001908201803590602001908080601f0160208091040260200160405190810160405280939291908181526020018383808284378201915050505050509192919290505050611d47565b6040518082815260200191505060405180910390f35b348015610ec557600080fd5b50610f40600480360381019080803573ffffffffffffffffffffffffffffffffffffffff169060200190929190803590602001908201803590602001908080601f0160208091040260200160405190810160405280939291908181526020018383808284378201915050505050509192919290505050611d72565b005b348015610f4e57600080fd5b50610fa3600480360381019080803573ffffffffffffffffffffffffffffffffffffffff169060200190929190803573ffffffffffffffffffffffffffffffffffffffff169060200190929190505050611e33565b604051808215151515815260200191505060405180910390f35b348015610fc957600080fd5b50610ffe600480360381019080803573ffffffffffffffffffffffffffffffffffffffff169060200190929190505050611ec7565b005b600061100b82611ee7565b151561101657600080fd5b600c6000838152602001908152602001600020549050919050565b6000806000837bffffffffffffffffffffffffffffffffffffffffffffffffffffffff19167bffffffffffffffffffffffffffffffffffffffffffffffffffffffff1916815260200190815260200160002060009054906101000a900460ff169050919050565b6110a133611f59565b565b6060600d8054600181600116156101000203166002900480601f01602080910402602001604051908101604052809291908181526020018280546001816001161561010002031660029004801561113b5780601f106111105761010080835404028352916020019161113b565b820191906000526020600020905b81548152906001019060200180831161111e57829003601f168201915b5050505050905090565b600061115082611ee7565b151561115b57600080fd5b6002600083815260200190815260200160002060009054906101000a900473ffffffffffffffffffffffffffffffffffffffff169050919050565b60006111a18261160b565b90508073ffffffffffffffffffffffffffffffffffffffff168373ffffffffffffffffffffffffffffffffffffffff16141515156111de57600080fd5b8073ffffffffffffffffffffffffffffffffffffffff163373ffffffffffffffffffffffffffffffffffffffff16148061121e575061121d8133611e33565b5b151561122957600080fd5b826002600084815260200190815260200160002060006101000a81548173ffffffffffffffffffffffffffffffffffffffff021916908373ffffffffffffffffffffffffffffffffffffffff160217905550818373ffffffffffffffffffffffffffffffffffffffff168273ffffffffffffffffffffffffffffffffffffffff167f8c5be1e5ebec7d5bd14f71427d1e84f3dd0314c0f7b2291e5b200ac8c7c3b92560405160405180910390a4505050565b6000600780549050905090565b6112f3838383611fb3565b6000600c600083815260200190815260200160002081905550505050565b600061131c82611ee7565b151561132757600080fd5b6009600083815260200190815260200160002060010160009054906101000a90046affffffffffffffffffffff16613fff169050919050565b600061136b82611ee7565b151561137657600080fd5b60466009600084815260200190815260200160002060010160009054906101000a90046affffffffffffffffffffff166affffffffffffffffffffff169060020a9004613fff169050919050565b60006113cf83611804565b821015156113dc57600080fd5b600560008473ffffffffffffffffffffffffffffffffffffffff1673ffffffffffffffffffffffffffffffffffffffff1681526020019081526020016000208281548110151561142857fe5b9060005260206000200154905092915050565b61144433611be7565b151561144f57600080fd5b80601190805190602001906114659291906136fe565b5050565b6114858383836020604051908101604052806000815250611b1d565b505050565b600061149582611ee7565b15156114a057600080fd5b601c6009600084815260200190815260200160002060010160009054906101000a90046affffffffffffffffffffff166affffffffffffffffffffff169060020a9004613fff169050919050565b60006114f86112db565b8210151561150557600080fd5b60078281548110151561151457fe5b90600052602060002001549050919050565b600061153182611ee7565b151561153c57600080fd5b600e6009600084815260200190815260200160002060010160009054906101000a90046affffffffffffffffffffff166affffffffffffffffffffff169060020a9004613fff169050919050565b600061159582611ee7565b15156115a057600080fd5b602a6009600084815260200190815260200160002060010160009054906101000a90046affffffffffffffffffffff166affffffffffffffffffffff169060020a9004613fff169050919050565b600061160482600b61208290919063ffffffff16565b9050919050565b6000806001600084815260200190815260200160002060009054906101000a900473ffffffffffffffffffffffffffffffffffffffff169050600073ffffffffffffffffffffffffffffffffffffffff168173ffffffffffffffffffffffffffffffffffffffff161415151561168057600080fd5b80915050919050565b600061169482611ee7565b151561169f57600080fd5b60386009600084815260200190815260200160002060010160009054906101000a90046affffffffffffffffffffff166affffffffffffffffffffff169060020a9004613fff169050919050565b60006116f882611ee7565b151561170357600080fd5b6009600083815260200190815260200160002060010160009054906101000a90046affffffffffffffffffffff169050919050565b606061174382611ee7565b151561174e57600080fd5b600960008381526020019081526020016000206000018054600181600116156101000203166002900480601f0160208091040260200160405190810160405280929190818152602001828054600181600116156101000203166002900480156117f85780601f106117cd576101008083540402835291602001916117f8565b820191906000526020600020905b8154815290600101906020018083116117db57829003601f168201915b50505050509050919050565b60008073ffffffffffffffffffffffffffffffffffffffff168273ffffffffffffffffffffffffffffffffffffffff161415151561184157600080fd5b600360008373ffffffffffffffffffffffffffffffffffffffff1673ffffffffffffffffffffffffffffffffffffffff168152602001908152602001600020549050919050565b61189133612116565b565b61189c336115ee565b15156118a757600080fd5b6118b082611ee7565b15156118bb57600080fd5b80600c6000848152602001908152602001600020819055505050565b6060600e8054600181600116156101000203166002900480601f01602080910402602001604051908101604052809291908181526020018280546001816001161561010002031660029004801561196f5780601f106119445761010080835404028352916020019161196f565b820191906000526020600020905b81548152906001019060200180831161195257829003601f168201915b5050505050905090565b61198233611b00565b151561198d57600080fd5b61199681612170565b50565b6119a2336121ca565b565b6119ad336115ee565b15156119b857600080fd5b6119c181612224565b50565b3373ffffffffffffffffffffffffffffffffffffffff168273ffffffffffffffffffffffffffffffffffffffff16141515156119ff57600080fd5b80600460003373ffffffffffffffffffffffffffffffffffffffff1673ffffffffffffffffffffffffffffffffffffffff16815260200190815260200160002060008473ffffffffffffffffffffffffffffffffffffffff1673ffffffffffffffffffffffffffffffffffffffff16815260200190815260200160002060006101000a81548160ff0219169083151502179055508173ffffffffffffffffffffffffffffffffffffffff163373ffffffffffffffffffffffffffffffffffffffff167f17307eab39ab6107e8899845ad3d59bd9653f200f220920489ca2b5937696c3183604051808215151515815260200191505060405180910390a35050565b6000611b1682600a61208290919063ffffffff16565b9050919050565b611b288484846112e8565b611b348484848461227e565b1515611b3f57600080fd5b50505050565b606060118054600181600116156101000203166002900480601f016020809104026020016040519081016040528092919081815260200182805460018160011615610100020316600290048015611bdd5780601f10611bb257610100808354040283529160200191611bdd565b820191906000526020600020905b815481529060010190602001808311611bc057829003601f168201915b5050505050905090565b6000611bfd82601061208290919063ffffffff16565b9050919050565b6060611c0f82611ee7565b1515611c83576040517f08c379a00000000000000000000000000000000000000000000000000000000081526004018080602001828103825260108152602001807f756e6578697374656e7420746f6b656e0000000000000000000000000000000081525060200191505060405180910390fd5b611d4060118054600181600116156101000203166002900480601f016020809104026020016040519081016040528092919081815260200182805460018160011615610100020316600290048015611d1c5780601f10611cf157610100808354040283529160200191611d1c565b820191906000526020600020905b815481529060010190602001808311611cff57829003601f168201915b5050505050611d2a846124a0565b60206040519081016040528060008152506125fd565b9050919050565b600080611d538361288f565b9050611d5e81611ee7565b1515611d6957600080fd5b80915050919050565b600080611d7d61377e565b611d8633611b00565b1515611d9157600080fd5b611d9a8461288f565b9250439150611da883612976565b9050611db48584612bdb565b611dbe8385612c32565b611e2c8383836000600581101515611dd257fe5b6020020151846001600581101515611de657fe5b6020020151856002600581101515611dfa57fe5b6020020151866003600581101515611e0e57fe5b6020020151876004600581101515611e2257fe5b6020020151612c75565b5050505050565b6000600460008473ffffffffffffffffffffffffffffffffffffffff1673ffffffffffffffffffffffffffffffffffffffff16815260200190815260200160002060008373ffffffffffffffffffffffffffffffffffffffff1673ffffffffffffffffffffffffffffffffffffffff16815260200190815260200160002060009054906101000a900460ff16905092915050565b611ed033611be7565b1515611edb57600080fd5b611ee481612d72565b50565b6000806001600084815260200190815260200160002060009054906101000a900473ffffffffffffffffffffffffffffffffffffffff169050600073ffffffffffffffffffffffffffffffffffffffff168173ffffffffffffffffffffffffffffffffffffffff161415915050919050565b611f6d816010612dcc90919063ffffffff16565b8073ffffffffffffffffffffffffffffffffffffffff167f6fc969fc997f05c5f255b6027262e2841593ca899f8a53dc7c211850866dff7860405160405180910390a250565b611fbd3382612e7b565b1515611fc857600080fd5b600073ffffffffffffffffffffffffffffffffffffffff168273ffffffffffffffffffffffffffffffffffffffff161415151561200457600080fd5b61200e8382612e9f565b6120188382612fa2565b612022828261315e565b808273ffffffffffffffffffffffffffffffffffffffff168473ffffffffffffffffffffffffffffffffffffffff167fddf252ad1be2c89b69c2b068fc378daa952ba7f163c4a11628f55a4df523b3ef60405160405180910390a4505050565b60008073ffffffffffffffffffffffffffffffffffffffff168273ffffffffffffffffffffffffffffffffffffffff16141515156120bf57600080fd5b8260000160008373ffffffffffffffffffffffffffffffffffffffff1673ffffffffffffffffffffffffffffffffffffffff16815260200190815260200160002060009054906101000a900460ff16905092915050565b61212a81600b612dcc90919063ffffffff16565b8073ffffffffffffffffffffffffffffffffffffffff167f479949d8f04794fcc0bc370dd44a71950d4d2c796fafb22a1861c9b95f01e1ba60405160405180910390a250565b61218481600a61323590919063ffffffff16565b8073ffffffffffffffffffffffffffffffffffffffff167f6ae172837ea30b801fbfcdd4108aa1d5bf8ff775444fd70256b44e6bf3dfc3f660405160405180910390a250565b6121de81600a612dcc90919063ffffffff16565b8073ffffffffffffffffffffffffffffffffffffffff167fe94479a9f7e1952cc78f2d6baab678adc1b772d936c6583def489e524cb6669260405160405180910390a250565b61223881600b61323590919063ffffffff16565b8073ffffffffffffffffffffffffffffffffffffffff167fd53502d3968ba02912985b5340be2f60593fe43902b38947cf00f05d6931820560405160405180910390a250565b6000806122a08573ffffffffffffffffffffffffffffffffffffffff166132e5565b15156122af5760019150612497565b8473ffffffffffffffffffffffffffffffffffffffff1663150b7a02338887876040518563ffffffff167c0100000000000000000000000000000000000000000000000000000000028152600401808573ffffffffffffffffffffffffffffffffffffffff1673ffffffffffffffffffffffffffffffffffffffff1681526020018473ffffffffffffffffffffffffffffffffffffffff1673ffffffffffffffffffffffffffffffffffffffff16815260200183815260200180602001828103825283818151815260200191508051906020019080838360005b838110156123a4578082015181840152602081019050612389565b50505050905090810190601f1680156123d15780820380516001836020036101000a031916815260200191505b5095505050505050602060405180830381600087803b1580156123f357600080fd5b505af1158015612407573d6000803e3d6000fd5b505050506040513d602081101561241d57600080fd5b8101908080519060200190929190505050905063150b7a027c0100000000000000000000000000000000000000000000000000000000027bffffffffffffffffffffffffffffffffffffffffffffffffffffffff1916817bffffffffffffffffffffffffffffffffffffffffffffffffffffffff19161491505b50949350505050565b6060600080606060008060008714156124f0576040805190810160405280600181526020017f300000000000000000000000000000000000000000000000000000000000000081525095506125f3565b8694505b60008514151561251a578380600101945050600a8581151561251257fe5b0494506124f4565b836040519080825280601f01601f19166020018201604052801561254d5781602001602082028038833980820191505090505b5092506001840391508690505b6000811415156125ef57600a8181151561257057fe5b066030017f0100000000000000000000000000000000000000000000000000000000000000028383806001900394508151811015156125ab57fe5b9060200101907effffffffffffffffffffffffffffffffffffffffffffffffffffffffffffff1916908160001a905350600a818115156125e757fe5b04905061255a565b8295505b5050505050919050565b6060806060806060806000808a965089955088945084518651885101016040519080825280601f01601f19166020018201604052801561264c5781602001602082028038833980820191505090505b50935083925060009150600090505b865181101561270e57868181518110151561267257fe5b9060200101517f010000000000000000000000000000000000000000000000000000000000000090047f01000000000000000000000000000000000000000000000000000000000000000283838060010194508151811015156126d157fe5b9060200101907effffffffffffffffffffffffffffffffffffffffffffffffffffffffffffff1916908160001a905350808060010191505061265b565b600090505b85518110156127c657858181518110151561272a57fe5b9060200101517f010000000000000000000000000000000000000000000000000000000000000090047f010000000000000000000000000000000000000000000000000000000000000002838380600101945081518110151561278957fe5b9060200101907effffffffffffffffffffffffffffffffffffffffffffffffffffffffffffff1916908160001a9053508080600101915050612713565b600090505b845181101561287e5784818151811015156127e257fe5b9060200101517f010000000000000000000000000000000000000000000000000000000000000090047f010000000000000000000000000000000000000000000000000000000000000002838380600101945081518110151561284157fe5b9060200101907effffffffffffffffffffffffffffffffffffffffffffffffffffffffffffff1916908160001a90535080806001019150506127cb565b829750505050505050509392505050565b6000806000836040516020018082805190602001908083835b6020831015156128cd57805182526020820191506020810190506020830392506128a8565b6001836020036101000a0380198251168184511680821785525050505050509050019150506040516020818303038152906040526040518082805190602001908083835b6020831015156129365780518252602082019150602081019050602083039250612911565b6001836020036101000a03801982511681845116808217855250505050505090500191505060405180910390209150816001900490508092505050919050565b61297e61377e565b60008061298961377e565b60008060008060014303406040516020018082600019166000191681526020019150506040516020818303038152906040526040518082805190602001908083835b6020831015156129f057805182526020820191506020810190506020830392506129cb565b6001836020036101000a03801982511681845116808217855250505050505090500191505060405180910390206001900496508887019550600093505b60058460ff161015612a7a57613fff8616858560ff16600581101515612a4f57fe5b602002019061ffff16908161ffff1681525050600e869060020a900495508380600101945050612a2d565b600093505b60058460ff161015612afc576032858560ff16600581101515612a9e57fe5b602002015161ffff16811515612ab057fe5b06858560ff16600581101515612ac257fe5b602002019061ffff16908161ffff1681525050848460ff16600581101515612ae657fe5b6020020151830192508380600101945050612a7f565b60058360fa0361ffff16811515612b0f57fe5b049150600093505b60058460ff161015612b6c5781858560ff16600581101515612b3557fe5b602002015101858560ff16600581101515612b4c57fe5b602002019061ffff16908161ffff16815250508380600101945050612b17565b60058360fa0361ffff16811515612b7f57fe5b069050600093505b8061ffff168460ff161015612bcc57848460ff16600581101515612ba757fe5b60200201805180919060010161ffff1661ffff16815250508380600101945050612b87565b84975050505050505050919050565b612be582826132f8565b600780549050600860008381526020019081526020016000208190555060078190806001815401808255809150509060018203906000526020600020016000909192909190915055505050565b612c3b82611ee7565b1515612c4657600080fd5b80600960008481526020019081526020016000206000019080519060200190612c709291906136fe565b505050565b6000612c8088611ee7565b1515612c8b57600080fd5b8661ffff1681179050600e8661ffff166affffffffffffffffffffff169060020a0281179050601c8561ffff166affffffffffffffffffffff169060020a0281179050602a8461ffff166affffffffffffffffffffff169060020a028117905060388361ffff166affffffffffffffffffffff169060020a028117905060468261ffff166affffffffffffffffffffff169060020a028117905080600960008a815260200190815260200160002060010160006101000a8154816affffffffffffffffffffff02191690836affffffffffffffffffffff1602179055505050505050505050565b612d8681601061323590919063ffffffff16565b8073ffffffffffffffffffffffffffffffffffffffff167fd3c102e3f9524b89c0fca09d73251309845dd243c31439c884168350c99b347e60405160405180910390a250565b600073ffffffffffffffffffffffffffffffffffffffff168173ffffffffffffffffffffffffffffffffffffffff1614151515612e0857600080fd5b612e128282612082565b1515612e1d57600080fd5b60008260000160008373ffffffffffffffffffffffffffffffffffffffff1673ffffffffffffffffffffffffffffffffffffffff16815260200190815260200160002060006101000a81548160ff0219169083151502179055505050565b6000612e86836115ee565b80612e975750612e96838361339e565b5b905092915050565b8173ffffffffffffffffffffffffffffffffffffffff16612ebf8261160b565b73ffffffffffffffffffffffffffffffffffffffff16141515612ee157600080fd5b600073ffffffffffffffffffffffffffffffffffffffff166002600083815260200190815260200160002060009054906101000a900473ffffffffffffffffffffffffffffffffffffffff1673ffffffffffffffffffffffffffffffffffffffff16141515612f9e5760006002600083815260200190815260200160002060006101000a81548173ffffffffffffffffffffffffffffffffffffffff021916908373ffffffffffffffffffffffffffffffffffffffff1602179055505b5050565b6000806000612fb18585613433565b6006600085815260200190815260200160002054925061301d6001600560008873ffffffffffffffffffffffffffffffffffffffff1673ffffffffffffffffffffffffffffffffffffffff1681526020019081526020016000208054905061356290919063ffffffff16565b9150600560008673ffffffffffffffffffffffffffffffffffffffff1673ffffffffffffffffffffffffffffffffffffffff1681526020019081526020016000208281548110151561306b57fe5b9060005260206000200154905080600560008773ffffffffffffffffffffffffffffffffffffffff1673ffffffffffffffffffffffffffffffffffffffff168152602001908152602001600020848154811015156130c557fe5b9060005260206000200181905550600560008673ffffffffffffffffffffffffffffffffffffffff1673ffffffffffffffffffffffffffffffffffffffff16815260200190815260200160002080548091906001900361312591906137a1565b50600060066000868152602001908152602001600020819055508260066000838152602001908152602001600020819055505050505050565b600061316a8383613583565b600560008473ffffffffffffffffffffffffffffffffffffffff1673ffffffffffffffffffffffffffffffffffffffff168152602001908152602001600020805490509050600560008473ffffffffffffffffffffffffffffffffffffffff1673ffffffffffffffffffffffffffffffffffffffff168152602001908152602001600020829080600181540180825580915050906001820390600052602060002001600090919290919091505550806006600084815260200190815260200160002081905550505050565b600073ffffffffffffffffffffffffffffffffffffffff168173ffffffffffffffffffffffffffffffffffffffff161415151561327157600080fd5b61327b8282612082565b15151561328757600080fd5b60018260000160008373ffffffffffffffffffffffffffffffffffffffff1673ffffffffffffffffffffffffffffffffffffffff16815260200190815260200160002060006101000a81548160ff0219169083151502179055505050565b600080823b905060008111915050919050565b600073ffffffffffffffffffffffffffffffffffffffff168273ffffffffffffffffffffffffffffffffffffffff161415151561333457600080fd5b61333e828261315e565b808273ffffffffffffffffffffffffffffffffffffffff16600073ffffffffffffffffffffffffffffffffffffffff167fddf252ad1be2c89b69c2b068fc378daa952ba7f163c4a11628f55a4df523b3ef60405160405180910390a45050565b6000806133aa8361160b565b90508073ffffffffffffffffffffffffffffffffffffffff168473ffffffffffffffffffffffffffffffffffffffff16148061341957508373ffffffffffffffffffffffffffffffffffffffff1661340184611145565b73ffffffffffffffffffffffffffffffffffffffff16145b8061342a57506134298185611e33565b5b91505092915050565b8173ffffffffffffffffffffffffffffffffffffffff166134538261160b565b73ffffffffffffffffffffffffffffffffffffffff1614151561347557600080fd5b6134c86001600360008573ffffffffffffffffffffffffffffffffffffffff1673ffffffffffffffffffffffffffffffffffffffff1681526020019081526020016000205461356290919063ffffffff16565b600360008473ffffffffffffffffffffffffffffffffffffffff1673ffffffffffffffffffffffffffffffffffffffff1681526020019081526020016000208190555060006001600083815260200190815260200160002060006101000a81548173ffffffffffffffffffffffffffffffffffffffff021916908373ffffffffffffffffffffffffffffffffffffffff1602179055505050565b60008083831115151561357457600080fd5b82840390508091505092915050565b600073ffffffffffffffffffffffffffffffffffffffff166001600083815260200190815260200160002060009054906101000a900473ffffffffffffffffffffffffffffffffffffffff1673ffffffffffffffffffffffffffffffffffffffff161415156135f157600080fd5b816001600083815260200190815260200160002060006101000a81548173ffffffffffffffffffffffffffffffffffffffff021916908373ffffffffffffffffffffffffffffffffffffffff1602179055506136966001600360008573ffffffffffffffffffffffffffffffffffffffff1673ffffffffffffffffffffffffffffffffffffffff168152602001908152602001600020546136dd90919063ffffffff16565b600360008473ffffffffffffffffffffffffffffffffffffffff1673ffffffffffffffffffffffffffffffffffffffff168152602001908152602001600020819055505050565b60008082840190508381101515156136f457600080fd5b8091505092915050565b828054600181600116156101000203166002900490600052602060002090601f016020900481019282601f1061373f57805160ff191683800117855561376d565b8280016001018555821561376d579182015b8281111561376c578251825591602001919060010190613751565b5b50905061377a91906137cd565b5090565b60a060405190810160405280600590602082028038833980820191505090505090565b8154818355818111156137c8578183600052602060002091820191016137c791906137cd565b5b505050565b6137ef91905b808211156137eb5760008160009055506001016137d3565b5090565b905600a165627a7a72305820fc895784385e6de787b07477228ff94c823d3267262583049b26c873995345ca0029",
  "source": "pragma solidity ^0.4.24;\n\nimport \"./CryptoPlayersTeam.sol\";\nimport \"./ERC721MetadataBaseURI.sol\";\n\ncontract CryptoPlayers is CryptoPlayersTeam, ERC721MetadataBaseURI(\"CPS0\", \"CSP0\") {\n}\n",
  "sourcePath": "/home/asini/workspace/crypto-soccer/truffle-core/contracts/ERC721/CryptoPlayers.sol",
  "compiler": {
    "name": "solc",
    "version": "0.4.25+commit.59dbf8f1.Emscripten.clang"
  },
  "schemaVersion": "2.0.2",
  "updatedAt": "2019-01-09T10:31:17.638Z"
}