{
  "contractName": "Assets",
  "abi": [
    {
      "constant": true,
      "inputs": [],
      "name": "NUM_SKILLS",
      "outputs": [
        {
          "name": "",
          "type": "uint8"
        }
      ],
      "payable": false,
      "stateMutability": "view",
      "type": "function"
    },
    {
      "constant": true,
      "inputs": [],
      "name": "PLAYERS_PER_TEAM",
      "outputs": [
        {
          "name": "",
          "type": "uint8"
        }
      ],
      "payable": false,
      "stateMutability": "view",
      "type": "function"
    },
    {
      "inputs": [
        {
          "name": "playerState",
          "type": "address"
        }
      ],
      "payable": false,
      "stateMutability": "nonpayable",
      "type": "constructor"
    },
    {
      "anonymous": false,
      "inputs": [
        {
          "indexed": false,
          "name": "id",
          "type": "uint256"
        }
      ],
      "name": "TeamCreated",
      "type": "event"
    },
    {
      "constant": true,
      "inputs": [
        {
          "name": "teamId",
          "type": "uint256"
        }
      ],
      "name": "getTeamCreationTimestamp",
      "outputs": [
        {
          "name": "",
          "type": "uint256"
        }
      ],
      "payable": false,
      "stateMutability": "view",
      "type": "function"
    },
    {
      "constant": true,
      "inputs": [
        {
          "name": "teamId",
          "type": "uint256"
        }
      ],
      "name": "getCurrentLeagueId",
      "outputs": [
        {
          "name": "",
          "type": "uint256"
        }
      ],
      "payable": false,
      "stateMutability": "view",
      "type": "function"
    },
    {
      "constant": true,
      "inputs": [
        {
          "name": "teamId",
          "type": "uint256"
        }
      ],
      "name": "getTeamCurrentHistory",
      "outputs": [
        {
          "name": "currentLeagueId",
          "type": "uint256"
        },
        {
          "name": "posInCurrentLeague",
          "type": "uint8"
        },
        {
          "name": "prevLeagueId",
          "type": "uint256"
        },
        {
          "name": "posInPrevLeague",
          "type": "uint8"
        }
      ],
      "payable": false,
      "stateMutability": "view",
      "type": "function"
    },
    {
      "constant": false,
      "inputs": [
        {
          "name": "playerId0",
          "type": "uint256"
        },
        {
          "name": "playerId1",
          "type": "uint256"
        }
      ],
      "name": "exchangePlayersTeams",
      "outputs": [],
      "payable": false,
      "stateMutability": "nonpayable",
      "type": "function"
    },
    {
      "constant": false,
      "inputs": [
        {
          "name": "name",
          "type": "string"
        },
        {
          "name": "owner",
          "type": "address"
        }
      ],
      "name": "createTeam",
      "outputs": [],
      "payable": false,
      "stateMutability": "nonpayable",
      "type": "function"
    },
    {
      "constant": false,
      "inputs": [
        {
          "name": "teamId",
          "type": "uint256"
        },
        {
          "name": "leagueId",
          "type": "uint256"
        },
        {
          "name": "posInLeague",
          "type": "uint8"
        }
      ],
      "name": "signToLeague",
      "outputs": [],
      "payable": false,
      "stateMutability": "nonpayable",
      "type": "function"
    },
    {
      "constant": true,
      "inputs": [
        {
          "name": "name",
          "type": "string"
        }
      ],
      "name": "getTeamOwner",
      "outputs": [
        {
          "name": "",
          "type": "address"
        }
      ],
      "payable": false,
      "stateMutability": "view",
      "type": "function"
    },
    {
      "constant": true,
      "inputs": [],
      "name": "countTeams",
      "outputs": [
        {
          "name": "",
          "type": "uint256"
        }
      ],
      "payable": false,
      "stateMutability": "view",
      "type": "function"
    },
    {
      "constant": true,
      "inputs": [
        {
          "name": "teamId",
          "type": "uint256"
        }
      ],
      "name": "getTeamName",
      "outputs": [
        {
          "name": "",
          "type": "string"
        }
      ],
      "payable": false,
      "stateMutability": "view",
      "type": "function"
    },
    {
      "constant": true,
      "inputs": [
        {
          "name": "teamId",
          "type": "uint256"
        }
      ],
      "name": "getTeamPlayerIds",
      "outputs": [
        {
          "name": "playerIds",
          "type": "uint256[25]"
        }
      ],
      "payable": false,
      "stateMutability": "view",
      "type": "function"
    },
    {
      "constant": true,
      "inputs": [
        {
          "name": "playerId",
          "type": "uint256"
        }
      ],
      "name": "getPlayerState",
      "outputs": [
        {
          "name": "",
          "type": "uint256"
        }
      ],
      "payable": false,
      "stateMutability": "view",
      "type": "function"
    },
    {
      "constant": true,
      "inputs": [
        {
          "name": "teamId",
          "type": "uint256"
        },
        {
          "name": "posInTeam",
          "type": "uint8"
        }
      ],
      "name": "generateVirtualPlayerId",
      "outputs": [
        {
          "name": "",
          "type": "uint256"
        }
      ],
      "payable": false,
      "stateMutability": "view",
      "type": "function"
    },
    {
      "constant": true,
      "inputs": [
        {
          "name": "playerId",
          "type": "uint256"
        }
      ],
      "name": "generateVirtualPlayerState",
      "outputs": [
        {
          "name": "",
          "type": "uint256"
        }
      ],
      "payable": false,
      "stateMutability": "view",
      "type": "function"
    }
  ],
  "bytecode": "0x60806040523480156200001157600080fd5b5060405162002e5e38038062002e5e833981810160405260208110156200003757600080fd5b810190808051906020019092919050505080600360006101000a81548173ffffffffffffffffffffffffffffffffffffffff021916908373ffffffffffffffffffffffffffffffffffffffff16021790555062000093620001d6565b60016040518060e001604052806040518060400160405280600181526020017f5f00000000000000000000000000000000000000000000000000000000000000815250815260200160008152602001600060ff16815260200160008152602001600060ff168152602001838152602001428152509080600181540180825580915050906001820390600052602060002090601f020160009091929091909150600082015181600001908051906020019062000150929190620001f9565b506020820151816001015560408201518160020160006101000a81548160ff021916908360ff1602179055506060820151816003015560808201518160040160006101000a81548160ff021916908360ff16021790555060a082015181600501906019620001c092919062000280565b5060c082015181601e01555050505050620002ed565b604051806103200160405280601990602082028038833980820191505090505090565b828054600181600116156101000203166002900490600052602060002090601f016020900481019282601f106200023c57805160ff19168380011785556200026d565b828001600101855582156200026d579182015b828111156200026c5782518255916020019190600101906200024f565b5b5090506200027c9190620002c5565b5090565b8260198101928215620002b2579160200282015b82811115620002b157825182559160200191906001019062000294565b5b509050620002c19190620002c5565b5090565b620002ea91905b80821115620002e6576000816000905550600101620002cc565b5090565b90565b612b6180620002fd6000396000f3fe608060405234801561001057600080fd5b50600436106100f55760003560e01c80637ab60d4811610097578063b2a93a1f11610066578063b2a93a1f1461049c578063d9d6357314610597578063ec7ecec5146105d9578063f97fa22f1461061b576100f5565b80637ab60d48146102b457806393ae14fd1461035b578063a66b1e781461039d578063ab6eeb0014610478576100f5565b8063528afa3f116100d3578063528afa3f146101c75780635cd5df14146101eb57806376a41d2d1461022d578063789875b51461027c576100f5565b806302154127146100fa578063039084781461013f57806316cb9b9d146101a9575b600080fd5b61013d6004803603606081101561011057600080fd5b810190808035906020019092919080359060200190929190803560ff16906020019092919050505061067e565b005b61016b6004803603602081101561015557600080fd5b810190808035906020019092919050505061088f565b6040518082601960200280838360005b8381101561019657808201518184015260208101905061017b565b5050505090500191505060405180910390f35b6101b16109de565b6040518082815260200191505060405180910390f35b6101cf6109ed565b604051808260ff1660ff16815260200191505060405180910390f35b6102176004803603602081101561020157600080fd5b81019080803590602001909291905050506109f2565b6040518082815260200191505060405180910390f35b6102666004803603604081101561024357600080fd5b8101908080359060200190929190803560ff169060200190929190505050610beb565b6040518082815260200191505060405180910390f35b6102b26004803603604081101561029257600080fd5b810190808035906020019092919080359060200190929190505050610cfd565b005b6102e0600480360360208110156102ca57600080fd5b81019080803590602001909291905050506117ef565b6040518080602001828103825283818151815260200191508051906020019080838360005b83811015610320578082015181840152602081019050610305565b50505050905090810190601f16801561034d5780820380516001836020036101000a031916815260200191505b509250505060405180910390f35b6103876004803603602081101561037157600080fd5b810190808035906020019092919050505061192a565b6040518082815260200191505060405180910390f35b610476600480360360408110156103b357600080fd5b81019080803590602001906401000000008111156103d057600080fd5b8201836020820111156103e257600080fd5b8035906020019184600183028401116401000000008311171561040457600080fd5b91908080601f016020809104026020016040519081016040528093929190818152602001838380828437600081840152601f19601f820116905080830192505050505050509192919290803573ffffffffffffffffffffffffffffffffffffffff1690602001909291905050506119cd565b005b610480611cd8565b604051808260ff1660ff16815260200191505060405180910390f35b610555600480360360208110156104b257600080fd5b81019080803590602001906401000000008111156104cf57600080fd5b8201836020820111156104e157600080fd5b8035906020019184600183028401116401000000008311171561050357600080fd5b91908080601f016020809104026020016040519081016040528093929190818152602001838380828437600081840152601f19601f820116905080830192505050505050509192919290505050611cdd565b604051808273ffffffffffffffffffffffffffffffffffffffff1673ffffffffffffffffffffffffffffffffffffffff16815260200191505060405180910390f35b6105c3600480360360208110156105ad57600080fd5b8101908080359060200190929190505050611daa565b6040518082815260200191505060405180910390f35b610605600480360360208110156105ef57600080fd5b8101908080359060200190929190505050611e4d565b6040518082815260200191505060405180910390f35b6106476004803603602081101561063157600080fd5b8101908080359060200190929190505050611f03565b604051808581526020018460ff1660ff1681526020018381526020018260ff1660ff16815260200194505050505060405180910390f35b61068783612029565b6106f9576040517f08c379a000000000000000000000000000000000000000000000000000000000815260040180806020018281038252600f8152602001807f696e76616c6964207465616d206964000000000000000000000000000000000081525060200191505060405180910390fd5b816001848154811061070757fe5b90600052602060002090601f020160010154141561078d576040517f08c379a000000000000000000000000000000000000000000000000000000000815260040180806020018281038252601d8152602001807f63616e6e6f74207369676e20746f2061206c656167756520747769636500000081525060200191505060405180910390fd5b6001838154811061079a57fe5b90600052602060002090601f020160010154600184815481106107b957fe5b90600052602060002090601f020160030181905550600183815481106107db57fe5b90600052602060002090601f020160020160009054906101000a900460ff166001848154811061080757fe5b90600052602060002090601f020160040160006101000a81548160ff021916908360ff160217905550816001848154811061083e57fe5b90600052602060002090601f020160010181905550806001848154811061086157fe5b90600052602060002090601f020160020160006101000a81548160ff021916908360ff160217905550505050565b610897612a02565b6108a082612029565b610912576040517f08c379a000000000000000000000000000000000000000000000000000000000815260040180806020018281038252600f8152602001807f696e76616c6964207465616d206964000000000000000000000000000000000081525060200191505060405180910390fd5b60008090505b601960ff168160ff1610156109d85760006001848154811061093657fe5b90600052602060002090601f02016005018260ff166019811061095557fe5b01541415610984576109678382610beb565b828260ff166019811061097657fe5b6020020181815250506109cb565b6001838154811061099157fe5b90600052602060002090601f02016005018160ff16601981106109b057fe5b0154828260ff16601981106109c157fe5b6020020181815250505b8080600101915050610918565b50919050565b60006001808054905003905090565b600581565b600080601960ff166001840381610a0557fe5b04600101905060006001808303601960ff160285030390506060610a28836117ef565b90506000610a368284612046565b9050610a40612a25565b610a49826120e7565b90506000610a5f83610a5a8861192a565b6122a4565b9050600360009054906101000a900473ffffffffffffffffffffffffffffffffffffffff1673ffffffffffffffffffffffffffffffffffffffff1663530f63d683600060058110610aac57fe5b602002015184600160058110610abe57fe5b602002015185600260058110610ad057fe5b602002015186600360058110610ae257fe5b602002015187600460058110610af457fe5b6020020151878f8e8e6000806000806040518e63ffffffff1660e01b8152600401808e61ffff1681526020018d61ffff1681526020018c61ffff1681526020018b61ffff1681526020018a61ffff1681526020018961ffff1681526020018881526020018781526020018681526020018581526020018481526020018381526020018281526020019d505050505050505050505050505060206040518083038186803b158015610ba357600080fd5b505afa158015610bb7573d6000803e3d6000fd5b505050506040513d6020811015610bcd57600080fd5b81019080805190602001909291905050509650505050505050919050565b6000610bf683612029565b610c68576040517f08c379a000000000000000000000000000000000000000000000000000000000815260040180806020018281038252600f8152602001807f756e6578697374656e74207465616d000000000000000000000000000000000081525060200191505060405180910390fd5b601960ff168260ff1610610ce4576040517f08c379a00000000000000000000000000000000000000000000000000000000081526004018080602001828103825260128152602001807f696e76616c696420706c6179657220706f73000000000000000000000000000081525060200191505060405180910390fd5b8160ff166001808503601960ff16020101905092915050565b610d0682612305565b8015610d175750610d1681612305565b5b610d89576040517f08c379a00000000000000000000000000000000000000000000000000000000081526004018080602001828103825260138152602001807f756e6578697374656e7420706c6179657249640000000000000000000000000081525060200191505060405180910390fd5b6000610d9483611e4d565b90506000610da183611e4d565b905060008290506000600360009054906101000a900473ffffffffffffffffffffffffffffffffffffffff1673ffffffffffffffffffffffffffffffffffffffff1663cd2105e8856040518263ffffffff1660e01b81526004018082815260200191505060206040518083038186803b158015610e1d57600080fd5b505afa158015610e31573d6000803e3d6000fd5b505050506040513d6020811015610e4757600080fd5b810190808051906020019092919050505090506000600360009054906101000a900473ffffffffffffffffffffffffffffffffffffffff1673ffffffffffffffffffffffffffffffffffffffff1663cd2105e8856040518263ffffffff1660e01b81526004018082815260200191505060206040518083038186803b158015610ecf57600080fd5b505afa158015610ee3573d6000803e3d6000fd5b505050506040513d6020811015610ef957600080fd5b810190808051906020019092919050505090506000600360009054906101000a900473ffffffffffffffffffffffffffffffffffffffff1673ffffffffffffffffffffffffffffffffffffffff1663eb78b7b7876040518263ffffffff1660e01b81526004018082815260200191505060206040518083038186803b158015610f8157600080fd5b505afa158015610f95573d6000803e3d6000fd5b505050506040513d6020811015610fab57600080fd5b810190808051906020019092919050505090506000600360009054906101000a900473ffffffffffffffffffffffffffffffffffffffff1673ffffffffffffffffffffffffffffffffffffffff1663eb78b7b7876040518263ffffffff1660e01b81526004018082815260200191505060206040518083038186803b15801561103357600080fd5b505afa158015611047573d6000803e3d6000fd5b505050506040513d602081101561105d57600080fd5b81019080805190602001909291905050509050600360009054906101000a900473ffffffffffffffffffffffffffffffffffffffff1673ffffffffffffffffffffffffffffffffffffffff1663c37b1c2586600360009054906101000a900473ffffffffffffffffffffffffffffffffffffffff1673ffffffffffffffffffffffffffffffffffffffff1663cd2105e88a6040518263ffffffff1660e01b81526004018082815260200191505060206040518083038186803b15801561112257600080fd5b505afa158015611136573d6000803e3d6000fd5b505050506040513d602081101561114c57600080fd5b81019080805190602001909291905050506040518363ffffffff1660e01b8152600401808381526020018281526020019250505060206040518083038186803b15801561119857600080fd5b505afa1580156111ac573d6000803e3d6000fd5b505050506040513d60208110156111c257600080fd5b81019080805190602001909291905050509450600360009054906101000a900473ffffffffffffffffffffffffffffffffffffffff1673ffffffffffffffffffffffffffffffffffffffff1663a95e858b86600360009054906101000a900473ffffffffffffffffffffffffffffffffffffffff1673ffffffffffffffffffffffffffffffffffffffff1663eb78b7b78a6040518263ffffffff1660e01b81526004018082815260200191505060206040518083038186803b15801561128757600080fd5b505afa15801561129b573d6000803e3d6000fd5b505050506040513d60208110156112b157600080fd5b81019080805190602001909291905050506040518363ffffffff1660e01b8152600401808381526020018281526020019250505060206040518083038186803b1580156112fd57600080fd5b505afa158015611311573d6000803e3d6000fd5b505050506040513d602081101561132757600080fd5b81019080805190602001909291905050509450600360009054906101000a900473ffffffffffffffffffffffffffffffffffffffff1673ffffffffffffffffffffffffffffffffffffffff1663c37b1c2587600360009054906101000a900473ffffffffffffffffffffffffffffffffffffffff1673ffffffffffffffffffffffffffffffffffffffff1663cd2105e88b6040518263ffffffff1660e01b81526004018082815260200191505060206040518083038186803b1580156113ec57600080fd5b505afa158015611400573d6000803e3d6000fd5b505050506040513d602081101561141657600080fd5b81019080805190602001909291905050506040518363ffffffff1660e01b8152600401808381526020018281526020019250505060206040518083038186803b15801561146257600080fd5b505afa158015611476573d6000803e3d6000fd5b505050506040513d602081101561148c57600080fd5b81019080805190602001909291905050509550600360009054906101000a900473ffffffffffffffffffffffffffffffffffffffff1673ffffffffffffffffffffffffffffffffffffffff1663a95e858b87600360009054906101000a900473ffffffffffffffffffffffffffffffffffffffff1673ffffffffffffffffffffffffffffffffffffffff1663eb78b7b78b6040518263ffffffff1660e01b81526004018082815260200191505060206040518083038186803b15801561155157600080fd5b505afa158015611565573d6000803e3d6000fd5b505050506040513d602081101561157b57600080fd5b81019080805190602001909291905050506040518363ffffffff1660e01b8152600401808381526020018281526020019250505060206040518083038186803b1580156115c757600080fd5b505afa1580156115db573d6000803e3d6000fd5b505050506040513d60208110156115f157600080fd5b81019080805190602001909291905050509550600360009054906101000a900473ffffffffffffffffffffffffffffffffffffffff1673ffffffffffffffffffffffffffffffffffffffff1663af76cd0186436040518363ffffffff1660e01b8152600401808381526020018281526020019250505060206040518083038186803b15801561167f57600080fd5b505afa158015611693573d6000803e3d6000fd5b505050506040513d60208110156116a957600080fd5b81019080805190602001909291905050509450600360009054906101000a900473ffffffffffffffffffffffffffffffffffffffff1673ffffffffffffffffffffffffffffffffffffffff1663af76cd0187436040518363ffffffff1660e01b8152600401808381526020018281526020019250505060206040518083038186803b15801561173757600080fd5b505afa15801561174b573d6000803e3d6000fd5b505050506040513d602081101561176157600080fd5b81019080805190602001909291905050509550876001858154811061178257fe5b90600052602060002090601f0201600501836019811061179e57fe5b018190555088600184815481106117b157fe5b90600052602060002090601f020160050182601981106117cd57fe5b01819055506117db85612367565b6117e486612367565b505050505050505050565b60606117fa82612029565b61186c576040517f08c379a000000000000000000000000000000000000000000000000000000000815260040180806020018281038252600f8152602001807f696e76616c6964207465616d206964000000000000000000000000000000000081525060200191505060405180910390fd5b6001828154811061187957fe5b90600052602060002090601f02016000018054600181600116156101000203166002900480601f01602080910402602001604051908101604052809291908181526020018280546001816001161561010002031660029004801561191e5780601f106118f35761010080835404028352916020019161191e565b820191906000526020600020905b81548152906001019060200180831161190157829003601f168201915b50505050509050919050565b600061193582612029565b6119a7576040517f08c379a000000000000000000000000000000000000000000000000000000000815260040180806020018281038252600f8152602001807f696e76616c6964207465616d206964000000000000000000000000000000000081525060200191505060405180910390fd5b600182815481106119b457fe5b90600052602060002090601f0201601e01549050919050565b6000826040516020018080602001828103825283818151815260200191508051906020019080838360005b83811015611a135780820151818401526020810190506119f8565b50505050905090810190601f168015611a405780820380516001836020036101000a031916815260200191505b5092505050604051602081830303815290604052805190602001209050600073ffffffffffffffffffffffffffffffffffffffff166002600083815260200190815260200160002060009054906101000a900473ffffffffffffffffffffffffffffffffffffffff1673ffffffffffffffffffffffffffffffffffffffff1614611b32576040517f08c379a00000000000000000000000000000000000000000000000000000000081526004018080602001828103825260138152602001807f7465616d20616c7265616479206578697374730000000000000000000000000081525060200191505060405180910390fd5b816002600083815260200190815260200160002060006101000a81548173ffffffffffffffffffffffffffffffffffffffff021916908373ffffffffffffffffffffffffffffffffffffffff160217905550611b8c612a02565b60016040518060e0016040528086815260200160008152602001600060ff16815260200160008152602001600060ff168152602001838152602001428152509080600181540180825580915050906001820390600052602060002090601f0201600090919290919091506000820151816000019080519060200190611c12929190612a47565b506020820151816001015560408201518160020160006101000a81548160ff021916908360ff1602179055506060820151816003015560808201518160040160006101000a81548160ff021916908360ff16021790555060a082015181600501906019611c80929190612ac7565b5060c082015181601e01555050506000600180805490500390507f015c069c0e6438bd2d98e0c7b6526d4f7596120b3a6ac20fd43f2aa00450b813816040518082815260200191505060405180910390a15050505050565b601981565b600080826040516020018080602001828103825283818151815260200191508051906020019080838360005b83811015611d24578082015181840152602081019050611d09565b50505050905090810190601f168015611d515780820380516001836020036101000a031916815260200191505b50925050506040516020818303038152906040528051906020012090506002600082815260200190815260200160002060009054906101000a900473ffffffffffffffffffffffffffffffffffffffff16915050919050565b6000611db582612029565b611e27576040517f08c379a000000000000000000000000000000000000000000000000000000000815260040180806020018281038252600f8152602001807f696e76616c6964207465616d206964000000000000000000000000000000000081525060200191505060405180910390fd5b60018281548110611e3457fe5b90600052602060002090601f0201600101549050919050565b6000611e5882612305565b611eca576040517f08c379a00000000000000000000000000000000000000000000000000000000081526004018080602001828103825260118152602001807f756e6578697374656e7420706c6179657200000000000000000000000000000081525060200191505060405180910390fd5b611ed382612968565b15611ee857611ee1826109f2565b9050611efe565b6000808381526020019081526020016000205490505b919050565b600080600080611f1285612029565b611f84576040517f08c379a000000000000000000000000000000000000000000000000000000000815260040180806020018281038252600f8152602001807f696e76616c6964207465616d206964000000000000000000000000000000000081525060200191505060405180910390fd5b60018581548110611f9157fe5b90600052602060002090601f02016001015460018681548110611fb057fe5b90600052602060002090601f020160020160009054906101000a900460ff1660018781548110611fdc57fe5b90600052602060002090601f02016003015460018881548110611ffb57fe5b90600052602060002090601f020160040160009054906101000a900460ff1693509350935093509193509193565b600080821415801561203f575060018054905082105b9050919050565b600082826040516020018080602001838152602001828103825284818151815260200191508051906020019080838360005b83811015612093578082015181840152602081019050612078565b50505050905090810190601f1680156120c05780820380516001836020036101000a031916815260200191505b5093505050506040516020818303038152906040528051906020012060001c905092915050565b6120ef612a25565b6120f7612a25565b60008090505b60058160ff16101561214b57613fff61ffff168416828260ff166005811061212157fe5b602002019061ffff16908161ffff1681525050600e60ff1684901c935080806001019150506120fd565b50600080600090505b60058160ff1610156121c9576032838260ff166005811061217157fe5b602002015161ffff168161218157fe5b06838260ff166005811061219157fe5b602002019061ffff16908161ffff1681525050828160ff16600581106121b357fe5b6020020151820191508080600101915050612154565b50600060058260fa0361ffff16816121dd57fe5b04905060008090505b60058160ff1610156122375781848260ff166005811061220257fe5b602002015101848260ff166005811061221757fe5b602002019061ffff16908161ffff168152505080806001019150506121e6565b50600060058360fa0361ffff168161224b57fe5b06905060008090505b8161ffff168160ff16101561229757848160ff166005811061227257fe5b60200201805180919060010161ffff1661ffff16815250508080600101915050612254565b5083945050505050919050565b60006005600e0260ff1683901c92506000613fff61ffff1684169050600060148261ffff16816122d057fe5b06601001905060006301e133809050600062278d00905080828461ffff16028703816122f857fe5b0494505050505092915050565b6000808214156123185760009050612362565b6000806000848152602001908152602001600020541461233b5760019050612362565b6000601960ff16600184038161234d57fe5b04600101905061235b6109de565b8111159150505b919050565b6000600360009054906101000a900473ffffffffffffffffffffffffffffffffffffffff1673ffffffffffffffffffffffffffffffffffffffff1663f4385912836040518263ffffffff1660e01b81526004018082815260200191505060206040518083038186803b1580156123dc57600080fd5b505afa1580156123f0573d6000803e3d6000fd5b505050506040513d602081101561240657600080fd5b8101908080519060200190929190505050905061242281612305565b612494576040517f08c379a00000000000000000000000000000000000000000000000000000000081526004018080602001828103825260118152602001807f756e6578697374656e7420706c6179657200000000000000000000000000000081525060200191505060405180910390fd5b6000600360009054906101000a900473ffffffffffffffffffffffffffffffffffffffff1673ffffffffffffffffffffffffffffffffffffffff1663cd2105e8846040518263ffffffff1660e01b81526004018082815260200191505060206040518083038186803b15801561250957600080fd5b505afa15801561251d573d6000803e3d6000fd5b505050506040513d602081101561253357600080fd5b8101908080519060200190929190505050905061254f81612029565b6125c1576040517f08c379a000000000000000000000000000000000000000000000000000000000815260040180806020018281038252600f8152602001807f756e6578697374656e74207465616d000000000000000000000000000000000081525060200191505060405180910390fd5b6000600360009054906101000a900473ffffffffffffffffffffffffffffffffffffffff1673ffffffffffffffffffffffffffffffffffffffff1663eb78b7b7856040518263ffffffff1660e01b81526004018082815260200191505060206040518083038186803b15801561263657600080fd5b505afa15801561264a573d6000803e3d6000fd5b505050506040513d602081101561266057600080fd5b81019080805190602001909291905050509050601960ff1681106126ec576040517f08c379a00000000000000000000000000000000000000000000000000000000081526004018080602001828103825260148152602001807f696e76616c6964207368697274206e756d62657200000000000000000000000081525060200191505060405180910390fd5b600360009054906101000a900473ffffffffffffffffffffffffffffffffffffffff1673ffffffffffffffffffffffffffffffffffffffff1663666d0070856040518263ffffffff1660e01b81526004018082815260200191505060206040518083038186803b15801561275f57600080fd5b505afa158015612773573d6000803e3d6000fd5b505050506040513d602081101561278957600080fd5b81019080805190602001909291905050509050601960ff168110612815576040517f08c379a00000000000000000000000000000000000000000000000000000000081526004018080602001828103825260148152602001807f696e76616c6964207368697274206e756d62657200000000000000000000000081525060200191505060405180910390fd5b6000600360009054906101000a900473ffffffffffffffffffffffffffffffffffffffff1673ffffffffffffffffffffffffffffffffffffffff1663c566b5bc866040518263ffffffff1660e01b81526004018082815260200191505060206040518083038186803b15801561288a57600080fd5b505afa15801561289e573d6000803e3d6000fd5b505050506040513d60208110156128b457600080fd5b81019080805190602001909291905050509050600081141580156128d85750438111155b61294a576040517f08c379a00000000000000000000000000000000000000000000000000000000081526004018080602001828103825260128152602001807f696e76616c69642073616c6520626c6f636b000000000000000000000000000081525060200191505060405180910390fd5b84600080868152602001908152602001600020819055505050505050565b600061297382612305565b6129e5576040517f08c379a00000000000000000000000000000000000000000000000000000000081526004018080602001828103825260118152602001807f756e6578697374656e7420706c6179657200000000000000000000000000000081525060200191505060405180910390fd5b600080600084815260200190815260200160002054149050919050565b604051806103200160405280601990602082028038833980820191505090505090565b6040518060a00160405280600590602082028038833980820191505090505090565b828054600181600116156101000203166002900490600052602060002090601f016020900481019282601f10612a8857805160ff1916838001178555612ab6565b82800160010185558215612ab6579182015b82811115612ab5578251825591602001919060010190612a9a565b5b509050612ac39190612b07565b5090565b8260198101928215612af6579160200282015b82811115612af5578251825591602001919060010190612ada565b5b509050612b039190612b07565b5090565b612b2991905b80821115612b25576000816000905550600101612b0d565b5090565b9056fea265627a7a72305820310bbe28928c100edb805aa75ccde69a696fd3da54b0818fc0d49969a261f1f564736f6c63430005090032",
  "source": "pragma solidity >=0.4.21 <0.6.0;\n\nimport \"../state/PlayerState.sol\";\n\n/// teamId == 0 is invalid and represents the null team\n/// TODO: fix the playerPos <=> playerShirt doubt\ncontract Assets {\n    event TeamCreated (uint256 id);\n\n    /// @dev The player skills in each team are obtained from hashing: name + userChoice\n    /// @dev So userChoice allows the user to inspect lots of teams compatible with his chosen name\n    /// @dev and select his favourite one.\n    /// @dev playerIdx serializes each player idx, allowing 20 bit for each (>1M players possible)\n    struct Team {\n        string name;\n        uint256 currentLeagueId;\n        uint8 posInCurrentLeague;\n        uint256 prevLeagueId;\n        uint8 posInPrevLeague;\n        uint256[PLAYERS_PER_TEAM] playerIds;\n        uint256 creationTimestamp; // timestamp as seconds since unix epoch\n    }\n\n    uint8 constant public PLAYERS_PER_TEAM = 25;\n    uint8 constant internal BITS_PER_SKILL = 14;\n    uint16 constant internal SKILL_MASK = 0x3fff;\n    uint8 constant public NUM_SKILLS = 5;\n\n    mapping(uint256 => uint256) private _playerIdToState;\n\n    /// @dev An array containing the Team struct for all teams in existence.\n    /// @dev The ID of each team is actually his index in this array.\n    Team[] private teams; // TODO: teams -> _teams\n    mapping(bytes32 => address) private _teamNameHashToOwner;\n\n    PlayerState internal _playerState;\n\n    constructor(address playerState) public {\n        _playerState = PlayerState(playerState);\n        uint256[PLAYERS_PER_TEAM] memory playerIds;\n        teams.push(Team(\"_\", 0, 0, 0, 0, playerIds, block.timestamp));\n    }\n\n    function getTeamCreationTimestamp(uint256 teamId) public view returns (uint256) {\n        require(_teamExists(teamId), \"invalid team id\");\n        return teams[teamId].creationTimestamp;\n    }\n\n    function getCurrentLeagueId(uint256 teamId) external view returns (uint256) {\n        require(_teamExists(teamId), \"invalid team id\");\n        return teams[teamId].currentLeagueId;\n    }\n\n    /// get the current and previous team league and position in league\n    function getTeamCurrentHistory(uint256 teamId) external view returns (\n        uint256 currentLeagueId,\n        uint8 posInCurrentLeague,\n        uint256 prevLeagueId,\n        uint8 posInPrevLeague\n        )\n    {\n        require(_teamExists(teamId), \"invalid team id\");\n        return (\n            teams[teamId].currentLeagueId,\n            teams[teamId].posInCurrentLeague,\n            teams[teamId].prevLeagueId,\n            teams[teamId].posInPrevLeague);\n    }\n\n    // TODO: exchange fails on playerId0 & playerId1 of the same team\n    function exchangePlayersTeams(uint256 playerId0, uint256 playerId1) public {\n        // TODO: check ownership address\n        require(_playerExists(playerId0) && _playerExists(playerId1), \"unexistent playerId\");\n        uint256 state0 = getPlayerState(playerId0);\n        uint256 state1 = getPlayerState(playerId1);\n        uint256 newState0 = state0;\n        uint256 teamId0 = _playerState.getCurrentTeamId(state0);\n        uint256 teamId1 = _playerState.getCurrentTeamId(state1);\n        uint256 playerShirt0 = _playerState.getCurrentShirtNum(state0);\n        uint256 playerShirt1 = _playerState.getCurrentShirtNum(state1);\n        newState0 = _playerState.setCurrentTeamId(newState0, _playerState.getCurrentTeamId(state1));\n        newState0 = _playerState.setCurrentShirtNum(newState0, _playerState.getCurrentShirtNum(state1));\n        state1 = _playerState.setCurrentTeamId(state1,_playerState.getCurrentTeamId(state0));\n        state1 = _playerState.setCurrentShirtNum(state1,_playerState.getCurrentShirtNum(state0));\n        newState0 = _playerState.setLastSaleBlock(newState0, block.number);\n        state1 = _playerState.setLastSaleBlock(state1, block.number);\n\n        teams[teamId0].playerIds[playerShirt0] = playerId1;\n        teams[teamId1].playerIds[playerShirt1] = playerId0;\n\n        // TODO\n        // if getBlockNumForLastLeagueOfTeam(teamIdx1, ST) > state1.getLastSaleBlocknum():\n        //     state1.prevLeagueIdx = ST.teams[teamIdx1].currentLeagueIdx\n        //     state1.prevTeamPosInLeague = ST.teams[teamIdx1].teamPosInCurrentLeague\n\n        // if getBlockNumForLastLeagueOfTeam(teamIdx2, ST) > state2.getLastSaleBlocknum():\n        //     state2.prevLeagueIdx = ST.teams[teamIdx2].currentLeagueIdx\n        //     state2.prevTeamPosInLeague = ST.teams[teamIdx2].teamPosInCurrentLeague\n\n        _setPlayerState(newState0);\n        _setPlayerState(state1);\n    }\n\n    function createTeam(string memory name, address owner) public {\n        bytes32 nameHash = keccak256(abi.encode(name));\n        require(_teamNameHashToOwner[nameHash] == address(0), \"team already exists\");\n        _teamNameHashToOwner[nameHash] = owner;\n        uint256[PLAYERS_PER_TEAM] memory playerIds;\n        teams.push(Team(name, 0, 0, 0, 0, playerIds, block.timestamp));\n        uint256 id = teams.length - 1;\n        emit TeamCreated(id);\n    }\n\n    function signToLeague(\n        uint256 teamId,\n        uint256 leagueId,\n        uint8 posInLeague\n    )\n    public\n    {\n        require(_teamExists(teamId), \"invalid team id\");\n        require(teams[teamId].currentLeagueId != leagueId, \"cannot sign to a league twice\");\n        teams[teamId].prevLeagueId = teams[teamId].currentLeagueId;\n        teams[teamId].posInPrevLeague = teams[teamId].posInCurrentLeague;\n        teams[teamId].currentLeagueId = leagueId;\n        teams[teamId].posInCurrentLeague = posInLeague;\n    }\n\n    // TODO: exception when not existent team\n    function getTeamOwner(string memory name) public view returns (address) {\n        bytes32 nameHash = keccak256(abi.encode(name));\n        return _teamNameHashToOwner[nameHash];\n    }\n\n    function countTeams() public view returns (uint256){\n        return teams.length - 1;\n    }\n\n    function getTeamName(uint256 teamId) public view returns (string memory) {\n        require(_teamExists(teamId), \"invalid team id\");\n        return teams[teamId].name;\n    }\n\n    function getTeamPlayerIds(uint256 teamId) public view returns (uint256[PLAYERS_PER_TEAM] memory playerIds) {\n        require(_teamExists(teamId), \"invalid team id\");\n        for (uint8 pos = 0 ; pos < PLAYERS_PER_TEAM ; pos++){\n            if (teams[teamId].playerIds[pos] == 0) // virtual player\n                playerIds[pos] = generateVirtualPlayerId(teamId, pos);\n            else\n                playerIds[pos] = teams[teamId].playerIds[pos];\n        }\n    }\n\n    function getPlayerState(uint256 playerId) public view returns (uint256) {\n        require(_playerExists(playerId), \"unexistent player\");\n        if (_isVirtual(playerId))\n            return generateVirtualPlayerState(playerId);\n        else\n            return _playerIdToState[playerId];\n    }\n\n    function generateVirtualPlayerId(uint256 teamId, uint8 posInTeam) public view returns (uint256) {\n        require(_teamExists(teamId), \"unexistent team\");\n        require(posInTeam < PLAYERS_PER_TEAM, \"invalid player pos\");\n        return PLAYERS_PER_TEAM * (teamId - 1) + 1 + posInTeam;\n    }\n\n    function generateVirtualPlayerState(uint256 playerId) public view returns (uint256) {\n            uint256 teamId = 1 + (playerId - 1) / PLAYERS_PER_TEAM;\n            uint256 posInTeam = playerId - PLAYERS_PER_TEAM * (teamId - 1) - 1;\n            string memory teamName = getTeamName(teamId);\n            uint256 seed = _computeSeed(teamName, posInTeam);\n            uint16[5] memory skills = _computeSkills(seed);\n            uint16 birth = _computeBirth(seed, getTeamCreationTimestamp(teamId));\n            return _playerState.playerStateCreate(\n                skills[0], // defence,\n                skills[1], // speed,\n                skills[2], // pass,\n                skills[3], // shoot,\n                skills[4], // endurance,\n                birth, // monthOfBirthInUnixTime,\n                playerId,\n                teamId,\n                posInTeam, // currentShirtNum,\n                0, // prevLeagueId,\n                0, // prevTeamPosInLeague,\n                0, // prevShirtNumInLeague,\n                0 // lastSaleBloc\n            );\n    }\n\n    function _setPlayerState(uint256 state) internal {\n        uint256 playerId = _playerState.getPlayerId(state);\n        require(_playerExists(playerId), \"unexistent player\");\n        uint256 teamId = _playerState.getCurrentTeamId(state);\n        require(_teamExists(teamId), \"unexistent team\");\n        uint256 shirtNumber = _playerState.getCurrentShirtNum(state);\n        require(shirtNumber < PLAYERS_PER_TEAM, \"invalid shirt number\");\n        shirtNumber = _playerState.getPrevShirtNumInLeague(state);\n        require(shirtNumber < PLAYERS_PER_TEAM, \"invalid shirt number\");\n        uint256 saleBlock = _playerState.getLastSaleBlock(state);\n        require(saleBlock != 0 && saleBlock <= block.number, \"invalid sale block\");\n        _playerIdToState[playerId] = state;\n    }\n\n    function _teamExists(uint256 teamId) internal view returns (bool) {\n        return teamId != 0 && teamId < teams.length;\n    }\n\n    function _playerExists(uint256 playerId) internal view returns (bool) {\n        if (playerId == 0) return false;\n        if (_playerIdToState[playerId] != 0) return true;\n        uint256 teamId = 1 + (playerId - 1) / PLAYERS_PER_TEAM;\n        return teamId <= countTeams();\n    }\n\n    function _isVirtual(uint256 playerId) internal view returns (bool) {\n        require(_playerExists(playerId), \"unexistent player\");\n        return _playerIdToState[playerId] == 0;\n    }\n\n    /// Compute a random age between 16 and 35\n    /// @param rnd is a random number used as seed of the skills\n    /// @param currentTime in seconds since unix epoch\n    /// @return monthOfBirth in monthUnixTime\n    function _computeBirth(uint256 rnd, uint256 currentTime) internal pure returns (uint16) {\n        rnd >>= BITS_PER_SKILL*NUM_SKILLS;\n        uint16 seed = uint16(rnd & SKILL_MASK);\n        /// @dev Ensure that age, in years at moment of creation, can vary between 16 and 35.\n        uint16 age = 16 + (seed % 20);\n\n        /// @dev Convert age to monthOfBirthAfterUnixEpoch.\n        /// @dev I leave it this way for clarity, for the time being.\n        uint years2secs = 365 * 24 * 3600; // TODO: make it a constant\n        uint month2secs = 30 * 24 * 3600; // TODO: make it a constant\n\n        return uint16((currentTime - age * years2secs) / month2secs);\n    }\n\n    /// Compute the pseudorandom skills, sum of the skills is 250\n    /// @param rnd is a random number used as seed of the skills\n    /// @return 5 skills\n    function _computeSkills(uint256 rnd) internal pure returns (uint16[NUM_SKILLS] memory) {\n        uint16[5] memory skills;\n        for (uint8 i = 0; i<5; i++) {\n            skills[i] = uint16(rnd & SKILL_MASK);\n            rnd >>= BITS_PER_SKILL;\n        }\n\n        /// The next 5 are skills skills. Adjust them to so that they add up to, maximum, 5*50 = 250.\n        uint16 excess;\n        for (uint8 i = 0; i < 5; i++) {\n            skills[i] = skills[i] % 50;\n            excess += skills[i];\n        }\n\n        /// At this point, at most, they add up to 5*49=245. Share the excess to reach 250:\n        uint16 delta = (250 - excess) / 5;\n        for (uint8 i = 0; i < 5; i++)\n            skills[i] = skills[i] + delta;\n\n        uint16 remainder = (250 - excess) % 5;\n        for (uint8 i = 0 ; i < remainder ; i++)\n            skills[i]++;\n\n        return skills;\n    }\n\n    /// @return seed\n    function _computeSeed(string memory teamName, uint256 posInTeam) internal pure returns (uint256) {\n        return uint256(keccak256(abi.encode(teamName, posInTeam)));\n    }\n\n    /// @return hashed arg casted to uint256\n    function _intHash(string memory arg) internal pure returns (uint256) {\n        return uint256(keccak256(abi.encode(arg)));\n    }\n}\n",
  "sourcePath": "/home/asini/workspace/crypto-soccer/truffle-core/contracts/assets/Assets.sol",
  "compiler": {
    "name": "solc",
    "version": "0.5.9+commit.e560f70d.Emscripten.clang"
  },
  "schemaVersion": "3.0.10",
  "updatedAt": "2019-07-18T13:21:26.720Z",
  "devdoc": {
    "methods": {}
  },
  "userdoc": {
    "methods": {
      "getTeamCurrentHistory(uint256)": {
        "notice": "get the current and previous team league and position in league"
      }
    },
    "notice": "teamId == 0 is invalid and represents the null team TODO: fix the playerPos <=> playerShirt doubt"
  }
}