{
  "contractName": "Leagues",
  "abi": [
    {
      "constant": true,
      "inputs": [
        {
          "name": "id",
          "type": "uint256"
        }
      ],
      "name": "getScores",
      "outputs": [
        {
          "name": "",
          "type": "uint16[]"
        }
      ],
      "payable": false,
      "stateMutability": "view",
      "type": "function"
    },
    {
      "constant": true,
      "inputs": [
        {
          "name": "leagueId",
          "type": "uint256"
        }
      ],
      "name": "getNTeams",
      "outputs": [
        {
          "name": "",
          "type": "uint256"
        }
      ],
      "payable": false,
      "stateMutability": "view",
      "type": "function"
    },
    {
      "constant": true,
      "inputs": [
        {
          "name": "id",
          "type": "uint256"
        }
      ],
      "name": "hasFinished",
      "outputs": [
        {
          "name": "",
          "type": "bool"
        }
      ],
      "payable": false,
      "stateMutability": "view",
      "type": "function"
    },
    {
      "constant": true,
      "inputs": [
        {
          "name": "leagueId",
          "type": "uint256"
        },
        {
          "name": "leagueDay",
          "type": "uint256"
        },
        {
          "name": "initLeagueState",
          "type": "uint256[]"
        },
        {
          "name": "tacticsIds",
          "type": "uint8[]"
        }
      ],
      "name": "computeDay",
      "outputs": [
        {
          "name": "scores",
          "type": "uint16[]"
        },
        {
          "name": "finalLeagueState",
          "type": "uint256[]"
        }
      ],
      "payable": false,
      "stateMutability": "view",
      "type": "function"
    },
    {
      "constant": false,
      "inputs": [
        {
          "name": "id",
          "type": "uint256"
        },
        {
          "name": "usersInitDataTeamIds",
          "type": "uint256[]"
        },
        {
          "name": "usersInitDataTactics",
          "type": "uint8[]"
        },
        {
          "name": "usersAlongDataTeamIds",
          "type": "uint256[]"
        },
        {
          "name": "usersAlongDataTactics",
          "type": "uint8[]"
        },
        {
          "name": "usersAlongDataBlocks",
          "type": "uint256[]"
        },
        {
          "name": "leagueDay",
          "type": "uint256"
        },
        {
          "name": "prevMatchdayStates",
          "type": "uint256[]"
        }
      ],
      "name": "challengeMatchdayStates",
      "outputs": [],
      "payable": false,
      "stateMutability": "nonpayable",
      "type": "function"
    },
    {
      "constant": false,
      "inputs": [
        {
          "name": "id",
          "type": "uint256"
        },
        {
          "name": "teamIds",
          "type": "uint256[]"
        },
        {
          "name": "tacticsIds",
          "type": "uint8[]"
        },
        {
          "name": "dataToChallengeInitStates",
          "type": "uint256[]"
        }
      ],
      "name": "challengeInitStates",
      "outputs": [],
      "payable": false,
      "stateMutability": "nonpayable",
      "type": "function"
    },
    {
      "constant": false,
      "inputs": [
        {
          "name": "id",
          "type": "uint256"
        }
      ],
      "name": "resetUpdater",
      "outputs": [],
      "payable": false,
      "stateMutability": "nonpayable",
      "type": "function"
    },
    {
      "constant": true,
      "inputs": [
        {
          "name": "id",
          "type": "uint256"
        }
      ],
      "name": "getUpdateBlock",
      "outputs": [
        {
          "name": "",
          "type": "uint256"
        }
      ],
      "payable": false,
      "stateMutability": "view",
      "type": "function"
    },
    {
      "constant": false,
      "inputs": [
        {
          "name": "id",
          "type": "uint256"
        },
        {
          "name": "teamIds",
          "type": "uint256[]"
        },
        {
          "name": "tacticsIds",
          "type": "uint8[]"
        },
        {
          "name": "dataToChallengeInitStates",
          "type": "uint256[]"
        }
      ],
      "name": "getInitPlayerStates",
      "outputs": [
        {
          "name": "state",
          "type": "uint256[]"
        }
      ],
      "payable": false,
      "stateMutability": "nonpayable",
      "type": "function"
    },
    {
      "constant": true,
      "inputs": [],
      "name": "leaguesCount",
      "outputs": [
        {
          "name": "",
          "type": "uint256"
        }
      ],
      "payable": false,
      "stateMutability": "view",
      "type": "function"
    },
    {
      "constant": true,
      "inputs": [
        {
          "name": "scores",
          "type": "uint16[]"
        },
        {
          "name": "score",
          "type": "uint16"
        }
      ],
      "name": "scoresAppend",
      "outputs": [
        {
          "name": "",
          "type": "uint16[]"
        }
      ],
      "payable": false,
      "stateMutability": "pure",
      "type": "function"
    },
    {
      "constant": true,
      "inputs": [
        {
          "name": "id",
          "type": "uint256"
        }
      ],
      "name": "isVerified",
      "outputs": [
        {
          "name": "",
          "type": "bool"
        }
      ],
      "payable": false,
      "stateMutability": "view",
      "type": "function"
    },
    {
      "constant": true,
      "inputs": [
        {
          "name": "id",
          "type": "uint256"
        },
        {
          "name": "day",
          "type": "uint256"
        }
      ],
      "name": "scoresGetDay",
      "outputs": [
        {
          "name": "dayScores",
          "type": "uint16[]"
        }
      ],
      "payable": false,
      "stateMutability": "view",
      "type": "function"
    },
    {
      "constant": true,
      "inputs": [
        {
          "name": "id",
          "type": "uint256"
        }
      ],
      "name": "hasStarted",
      "outputs": [
        {
          "name": "",
          "type": "bool"
        }
      ],
      "payable": false,
      "stateMutability": "view",
      "type": "function"
    },
    {
      "constant": true,
      "inputs": [
        {
          "name": "id",
          "type": "uint256"
        }
      ],
      "name": "getDayStateHashes",
      "outputs": [
        {
          "name": "",
          "type": "bytes32[]"
        }
      ],
      "payable": false,
      "stateMutability": "view",
      "type": "function"
    },
    {
      "constant": true,
      "inputs": [
        {
          "name": "teamIds",
          "type": "uint256[]"
        },
        {
          "name": "tacticsIds",
          "type": "uint8[]"
        },
        {
          "name": "blocks",
          "type": "uint256[]"
        }
      ],
      "name": "computeUsersAlongDataHash",
      "outputs": [
        {
          "name": "",
          "type": "bytes32"
        }
      ],
      "payable": false,
      "stateMutability": "pure",
      "type": "function"
    },
    {
      "constant": false,
      "inputs": [
        {
          "name": "nTeams",
          "type": "uint8"
        },
        {
          "name": "initBlock",
          "type": "uint256"
        },
        {
          "name": "step",
          "type": "uint256"
        }
      ],
      "name": "create",
      "outputs": [],
      "payable": false,
      "stateMutability": "nonpayable",
      "type": "function"
    },
    {
      "constant": false,
      "inputs": [
        {
          "name": "id",
          "type": "uint256"
        },
        {
          "name": "teamIds",
          "type": "uint256[]"
        },
        {
          "name": "tacticsIds",
          "type": "uint8[]"
        },
        {
          "name": "blocks",
          "type": "uint256[]"
        }
      ],
      "name": "updateUsersAlongDataHash",
      "outputs": [],
      "payable": false,
      "stateMutability": "nonpayable",
      "type": "function"
    },
    {
      "constant": true,
      "inputs": [
        {
          "name": "home",
          "type": "uint8"
        },
        {
          "name": "visitor",
          "type": "uint8"
        }
      ],
      "name": "encodeScore",
      "outputs": [
        {
          "name": "score",
          "type": "uint16"
        }
      ],
      "payable": false,
      "stateMutability": "pure",
      "type": "function"
    },
    {
      "constant": true,
      "inputs": [],
      "name": "getChallengePeriod",
      "outputs": [
        {
          "name": "",
          "type": "uint256"
        }
      ],
      "payable": false,
      "stateMutability": "pure",
      "type": "function"
    },
    {
      "constant": true,
      "inputs": [
        {
          "name": "leagueId",
          "type": "uint256"
        }
      ],
      "name": "getStep",
      "outputs": [
        {
          "name": "",
          "type": "uint256"
        }
      ],
      "payable": false,
      "stateMutability": "view",
      "type": "function"
    },
    {
      "constant": true,
      "inputs": [
        {
          "name": "id",
          "type": "uint256"
        }
      ],
      "name": "getMatchPerDay",
      "outputs": [
        {
          "name": "",
          "type": "uint256"
        }
      ],
      "payable": false,
      "stateMutability": "view",
      "type": "function"
    },
    {
      "constant": true,
      "inputs": [
        {
          "name": "id",
          "type": "uint256"
        },
        {
          "name": "matchday",
          "type": "uint256"
        },
        {
          "name": "matchIdx",
          "type": "uint256"
        }
      ],
      "name": "getTeamsInMatch",
      "outputs": [
        {
          "name": "homeIdx",
          "type": "uint256"
        },
        {
          "name": "visitorIdx",
          "type": "uint256"
        }
      ],
      "payable": false,
      "stateMutability": "view",
      "type": "function"
    },
    {
      "constant": true,
      "inputs": [
        {
          "name": "id",
          "type": "uint256"
        }
      ],
      "name": "didUpdaterLie",
      "outputs": [
        {
          "name": "",
          "type": "bool"
        }
      ],
      "payable": false,
      "stateMutability": "view",
      "type": "function"
    },
    {
      "constant": true,
      "inputs": [
        {
          "name": "id",
          "type": "uint256"
        }
      ],
      "name": "getEndBlock",
      "outputs": [
        {
          "name": "",
          "type": "uint256"
        }
      ],
      "payable": false,
      "stateMutability": "view",
      "type": "function"
    },
    {
      "constant": false,
      "inputs": [
        {
          "name": "id",
          "type": "uint256"
        },
        {
          "name": "initStateHash",
          "type": "bytes32"
        },
        {
          "name": "dayStateHashes",
          "type": "bytes32[]"
        },
        {
          "name": "scores",
          "type": "uint16[]"
        },
        {
          "name": "isLie",
          "type": "bool"
        }
      ],
      "name": "updateLeague",
      "outputs": [],
      "payable": false,
      "stateMutability": "nonpayable",
      "type": "function"
    },
    {
      "constant": true,
      "inputs": [],
      "name": "getEngineContract",
      "outputs": [
        {
          "name": "",
          "type": "address"
        }
      ],
      "payable": false,
      "stateMutability": "view",
      "type": "function"
    },
    {
      "constant": true,
      "inputs": [
        {
          "name": "id",
          "type": "uint256"
        }
      ],
      "name": "getUsersAlongDataHash",
      "outputs": [
        {
          "name": "",
          "type": "bytes32"
        }
      ],
      "payable": false,
      "stateMutability": "view",
      "type": "function"
    },
    {
      "constant": true,
      "inputs": [
        {
          "name": "target",
          "type": "uint16[]"
        },
        {
          "name": "scores",
          "type": "uint16[]"
        }
      ],
      "name": "scoresConcat",
      "outputs": [
        {
          "name": "",
          "type": "uint16[]"
        }
      ],
      "payable": false,
      "stateMutability": "pure",
      "type": "function"
    },
    {
      "constant": true,
      "inputs": [
        {
          "name": "id",
          "type": "uint256"
        }
      ],
      "name": "getUpdater",
      "outputs": [
        {
          "name": "",
          "type": "address"
        }
      ],
      "payable": false,
      "stateMutability": "view",
      "type": "function"
    },
    {
      "constant": true,
      "inputs": [],
      "name": "PLAYERS_PER_TEAM",
      "outputs": [
        {
          "name": "",
          "type": "uint8"
        }
      ],
      "payable": false,
      "stateMutability": "view",
      "type": "function"
    },
    {
      "constant": true,
      "inputs": [
        {
          "name": "id",
          "type": "uint256"
        }
      ],
      "name": "countLeagueDays",
      "outputs": [
        {
          "name": "",
          "type": "uint256"
        }
      ],
      "payable": false,
      "stateMutability": "view",
      "type": "function"
    },
    {
      "constant": true,
      "inputs": [
        {
          "name": "id",
          "type": "uint256"
        }
      ],
      "name": "getInitStateHash",
      "outputs": [
        {
          "name": "",
          "type": "bytes32"
        }
      ],
      "payable": false,
      "stateMutability": "view",
      "type": "function"
    },
    {
      "constant": false,
      "inputs": [
        {
          "name": "leagueId",
          "type": "uint256"
        },
        {
          "name": "teamId",
          "type": "uint256"
        },
        {
          "name": "teamOrder",
          "type": "uint8[25]"
        },
        {
          "name": "teamTactics",
          "type": "uint8"
        }
      ],
      "name": "signTeamInLeague",
      "outputs": [],
      "payable": false,
      "stateMutability": "nonpayable",
      "type": "function"
    },
    {
      "constant": true,
      "inputs": [
        {
          "name": "id",
          "type": "uint256"
        },
        {
          "name": "day",
          "type": "uint256"
        }
      ],
      "name": "getMatchDayBlockHash",
      "outputs": [
        {
          "name": "",
          "type": "bytes32"
        }
      ],
      "payable": false,
      "stateMutability": "view",
      "type": "function"
    },
    {
      "constant": true,
      "inputs": [
        {
          "name": "leagueId",
          "type": "uint256"
        }
      ],
      "name": "getUsersInitDataHash",
      "outputs": [
        {
          "name": "",
          "type": "bytes32"
        }
      ],
      "payable": false,
      "stateMutability": "view",
      "type": "function"
    },
    {
      "constant": false,
      "inputs": [
        {
          "name": "stakersContract",
          "type": "address"
        }
      ],
      "name": "setStakersContract",
      "outputs": [],
      "payable": false,
      "stateMutability": "nonpayable",
      "type": "function"
    },
    {
      "constant": true,
      "inputs": [
        {
          "name": "state",
          "type": "uint256[]"
        }
      ],
      "name": "hashInitState",
      "outputs": [
        {
          "name": "",
          "type": "bytes32"
        }
      ],
      "payable": false,
      "stateMutability": "pure",
      "type": "function"
    },
    {
      "constant": true,
      "inputs": [
        {
          "name": "id",
          "type": "uint256"
        }
      ],
      "name": "getLastChallengeBlock",
      "outputs": [
        {
          "name": "",
          "type": "uint256"
        }
      ],
      "payable": false,
      "stateMutability": "view",
      "type": "function"
    },
    {
      "constant": true,
      "inputs": [
        {
          "name": "state",
          "type": "uint256[]"
        }
      ],
      "name": "hashDayState",
      "outputs": [
        {
          "name": "",
          "type": "bytes32"
        }
      ],
      "payable": false,
      "stateMutability": "view",
      "type": "function"
    },
    {
      "constant": true,
      "inputs": [
        {
          "name": "id",
          "type": "uint256"
        }
      ],
      "name": "isUpdated",
      "outputs": [
        {
          "name": "",
          "type": "bool"
        }
      ],
      "payable": false,
      "stateMutability": "view",
      "type": "function"
    },
    {
      "constant": true,
      "inputs": [],
      "name": "scoresCreate",
      "outputs": [
        {
          "name": "",
          "type": "uint16[]"
        }
      ],
      "payable": false,
      "stateMutability": "pure",
      "type": "function"
    },
    {
      "constant": true,
      "inputs": [
        {
          "name": "leagueId",
          "type": "uint256"
        }
      ],
      "name": "getInitBlock",
      "outputs": [
        {
          "name": "",
          "type": "uint256"
        }
      ],
      "payable": false,
      "stateMutability": "view",
      "type": "function"
    },
    {
      "constant": false,
      "inputs": [
        {
          "name": "assetsContract",
          "type": "address"
        }
      ],
      "name": "setAssetsContract",
      "outputs": [],
      "payable": false,
      "stateMutability": "nonpayable",
      "type": "function"
    },
    {
      "constant": true,
      "inputs": [
        {
          "name": "score",
          "type": "uint16"
        }
      ],
      "name": "decodeScore",
      "outputs": [
        {
          "name": "home",
          "type": "uint8"
        },
        {
          "name": "visitor",
          "type": "uint8"
        }
      ],
      "payable": false,
      "stateMutability": "pure",
      "type": "function"
    },
    {
      "inputs": [
        {
          "name": "engine",
          "type": "address"
        },
        {
          "name": "state",
          "type": "address"
        }
      ],
      "payable": false,
      "stateMutability": "nonpayable",
      "type": "constructor"
    },
    {
      "anonymous": false,
      "inputs": [
        {
          "indexed": false,
          "name": "challengeSucceeded",
          "type": "bool"
        }
      ],
      "name": "ChallengeFinished",
      "type": "event"
    },
    {
      "anonymous": false,
      "inputs": [
        {
          "indexed": false,
          "name": "leagueId",
          "type": "uint256"
        }
      ],
      "name": "LeagueCreated",
      "type": "event"
    }
  ],
  "bytecode": "0x608060405234801561001057600080fd5b506040516200552f3803806200552f8339818101604052604081101561003557600080fd5b8101908080519060200190929190805190602001909291905050508181818160016040518060a00160405280600060ff16815260200160008152602001600081526020016000801b8152602001600060ff168152509080600181540180825580915050906001820390600052602060002090600502016000909192909190915060008201518160000160006101000a81548160ff021916908360ff16021790555060208201518160010155604082015181600201556060820151816003015560808201518160040160006101000a81548160ff021916908360ff16021790555050505081600560006101000a81548173ffffffffffffffffffffffffffffffffffffffff021916908373ffffffffffffffffffffffffffffffffffffffff16021790555080600460006101000a81548173ffffffffffffffffffffffffffffffffffffffff021916908373ffffffffffffffffffffffffffffffffffffffff16021790555050505050505061537f80620001b06000396000f3fe608060405234801561001057600080fd5b506004361061027f5760003560e01c806384ec783c1161015c578063bd9f82a2116100ce578063cc540c8f11610087578063cc540c8f14611dc6578063d39daf7e14611e92578063e41f70bd14611ed8578063e878ffa314611f37578063ea76298f14611f79578063fcb10b9414611fbd5761027f565b8063bd9f82a214611b5e578063bdfe30ab14611be6578063beec552214611c32578063c1fb64ca14611c74578063c46a693914611cb8578063c85aed2914611d845761027f565b80639e33c8a1116101205780639e33c8a114611865578063a338f237146118a7578063a8541e8e14611a48578063ab6eeb0014611ab6578063adac0d7f14611ada578063b4c2129514611b1c5761027f565b806384ec783c146115ca5780638748d899146116275780638c8ab7ad1461166d57806394f37021146116af5780639c0536d81461181b5761027f565b806337b6d96b116101f55780636e530e97116101b95780636e530e971461129f578063706735c3146112e4578063723adff3146114ce5780637864b77d146115285780637874888a14611546578063832e0081146115885761027f565b806337b6d96b14610f0f5780634a52e3ec14610f5557806351f41c0914610fe2578063620d4e8d1461102857806365a1250d146110ab5761027f565b80631996da2d116102475780631996da2d1461093d57806328d3be7914610b275780632b86689014610b555780632c2dd4f714610b97578063336b5a6514610dd657806333a4aba614610df45761027f565b806304527d901461028457806307a6d22214610307578063126f648c146103495780631307edf21461038f578063168183b41461058c575b600080fd5b6102b06004803603602081101561029a57600080fd5b8101908080359060200190929190505050612016565b6040518080602001828103825283818151815260200191508051906020019060200280838360005b838110156102f35780820151818401526020810190506102d8565b505050509050019250505060405180910390f35b6103336004803603602081101561031d57600080fd5b8101908080359060200190929190505050612127565b6040518082815260200191505060405180910390f35b6103756004803603602081101561035f57600080fd5b81019080803590602001909291905050506121da565b604051808215151515815260200191505060405180910390f35b6104ed600480360360808110156103a557600080fd5b810190808035906020019092919080359060200190929190803590602001906401000000008111156103d657600080fd5b8201836020820111156103e857600080fd5b8035906020019184602083028401116401000000008311171561040a57600080fd5b919080806020026020016040519081016040528093929190818152602001838360200280828437600081840152601f19601f8201169050808301925050505050505091929192908035906020019064010000000081111561046a57600080fd5b82018360208201111561047c57600080fd5b8035906020019184602083028401116401000000008311171561049e57600080fd5b919080806020026020016040519081016040528093929190818152602001838360200280828437600081840152601f19601f8201169050808301925050505050505091929192905050506121ef565b604051808060200180602001838103835285818151815260200191508051906020019060200280838360005b83811015610534578082015181840152602081019050610519565b50505050905001838103825284818151815260200191508051906020019060200280838360005b8381101561057657808201518184015260208101905061055b565b5050505090500194505050505060405180910390f35b61093b60048036036101008110156105a357600080fd5b8101908080359060200190929190803590602001906401000000008111156105ca57600080fd5b8201836020820111156105dc57600080fd5b803590602001918460208302840111640100000000831117156105fe57600080fd5b919080806020026020016040519081016040528093929190818152602001838360200280828437600081840152601f19601f8201169050808301925050505050505091929192908035906020019064010000000081111561065e57600080fd5b82018360208201111561067057600080fd5b8035906020019184602083028401116401000000008311171561069257600080fd5b919080806020026020016040519081016040528093929190818152602001838360200280828437600081840152601f19601f820116905080830192505050505050509192919290803590602001906401000000008111156106f257600080fd5b82018360208201111561070457600080fd5b8035906020019184602083028401116401000000008311171561072657600080fd5b919080806020026020016040519081016040528093929190818152602001838360200280828437600081840152601f19601f8201169050808301925050505050505091929192908035906020019064010000000081111561078657600080fd5b82018360208201111561079857600080fd5b803590602001918460208302840111640100000000831117156107ba57600080fd5b919080806020026020016040519081016040528093929190818152602001838360200280828437600081840152601f19601f8201169050808301925050505050505091929192908035906020019064010000000081111561081a57600080fd5b82018360208201111561082c57600080fd5b8035906020019184602083028401116401000000008311171561084e57600080fd5b919080806020026020016040519081016040528093929190818152602001838360200280828437600081840152601f19601f82011690508083019250505050505050919291929080359060200190929190803590602001906401000000008111156108b857600080fd5b8201836020820111156108ca57600080fd5b803590602001918460208302840111640100000000831117156108ec57600080fd5b919080806020026020016040519081016040528093929190818152602001838360200280828437600081840152601f19601f82011690508083019250505050505050919291929050505061221e565b005b610b256004803603608081101561095357600080fd5b81019080803590602001909291908035906020019064010000000081111561097a57600080fd5b82018360208201111561098c57600080fd5b803590602001918460208302840111640100000000831117156109ae57600080fd5b919080806020026020016040519081016040528093929190818152602001838360200280828437600081840152601f19601f82011690508083019250505050505050919291929080359060200190640100000000811115610a0e57600080fd5b820183602082011115610a2057600080fd5b80359060200191846020830284011164010000000083111715610a4257600080fd5b919080806020026020016040519081016040528093929190818152602001838360200280828437600081840152601f19601f82011690508083019250505050505050919291929080359060200190640100000000811115610aa257600080fd5b820183602082011115610ab457600080fd5b80359060200191846020830284011164010000000083111715610ad657600080fd5b919080806020026020016040519081016040528093929190818152602001838360200280828437600081840152601f19601f82011690508083019250505050505050919291929050505061235b565b005b610b5360048036036020811015610b3d57600080fd5b8101908080359060200190929190505050612494565b005b610b8160048036036020811015610b6b57600080fd5b8101908080359060200190929190505050612612565b6040518082815260200191505060405180910390f35b610d7f60048036036080811015610bad57600080fd5b810190808035906020019092919080359060200190640100000000811115610bd457600080fd5b820183602082011115610be657600080fd5b80359060200191846020830284011164010000000083111715610c0857600080fd5b919080806020026020016040519081016040528093929190818152602001838360200280828437600081840152601f19601f82011690508083019250505050505050919291929080359060200190640100000000811115610c6857600080fd5b820183602082011115610c7a57600080fd5b80359060200191846020830284011164010000000083111715610c9c57600080fd5b919080806020026020016040519081016040528093929190818152602001838360200280828437600081840152601f19601f82011690508083019250505050505050919291929080359060200190640100000000811115610cfc57600080fd5b820183602082011115610d0e57600080fd5b80359060200191846020830284011164010000000083111715610d3057600080fd5b919080806020026020016040519081016040528093929190818152602001838360200280828437600081840152601f19601f8201169050808301925050505050505091929192905050506126ad565b6040518080602001828103825283818151815260200191508051906020019060200280838360005b83811015610dc2578082015181840152602081019050610da7565b505050509050019250505060405180910390f35b610dde6126b7565b6040518082815260200191505060405180910390f35b610eb860048036036040811015610e0a57600080fd5b8101908080359060200190640100000000811115610e2757600080fd5b820183602082011115610e3957600080fd5b80359060200191846020830284011164010000000083111715610e5b57600080fd5b919080806020026020016040519081016040528093929190818152602001838360200280828437600081840152601f19601f820116905080830192505050505050509192919290803561ffff1690602001909291905050506126c6565b6040518080602001828103825283818151815260200191508051906020019060200280838360005b83811015610efb578082015181840152602081019050610ee0565b505050509050019250505060405180910390f35b610f3b60048036036020811015610f2557600080fd5b8101908080359060200190929190505050612783565b604051808215151515815260200191505060405180910390f35b610f8b60048036036040811015610f6b57600080fd5b8101908080359060200190929190803590602001909291905050506127bf565b6040518080602001828103825283818151815260200191508051906020019060200280838360005b83811015610fce578082015181840152602081019050610fb3565b505050509050019250505060405180910390f35b61100e60048036036020811015610ff857600080fd5b8101908080359060200190929190505050612871565b604051808215151515815260200191505060405180910390f35b6110546004803603602081101561103e57600080fd5b8101908080359060200190929190505050612886565b6040518080602001828103825283818151815260200191508051906020019060200280838360005b8381101561109757808201518184015260208101905061107c565b505050509050019250505060405180910390f35b611289600480360360608110156110c157600080fd5b81019080803590602001906401000000008111156110de57600080fd5b8201836020820111156110f057600080fd5b8035906020019184602083028401116401000000008311171561111257600080fd5b919080806020026020016040519081016040528093929190818152602001838360200280828437600081840152601f19601f8201169050808301925050505050505091929192908035906020019064010000000081111561117257600080fd5b82018360208201111561118457600080fd5b803590602001918460208302840111640100000000831117156111a657600080fd5b919080806020026020016040519081016040528093929190818152602001838360200280828437600081840152601f19601f8201169050808301925050505050505091929192908035906020019064010000000081111561120657600080fd5b82018360208201111561121857600080fd5b8035906020019184602083028401116401000000008311171561123a57600080fd5b919080806020026020016040519081016040528093929190818152602001838360200280828437600081840152601f19601f82011690508083019250505050505050919291929050505061296f565b6040518082815260200191505060405180910390f35b6112e2600480360360608110156112b557600080fd5b81019080803560ff1690602001909291908035906020019092919080359060200190929190505050612988565b005b6114cc600480360360808110156112fa57600080fd5b81019080803590602001909291908035906020019064010000000081111561132157600080fd5b82018360208201111561133357600080fd5b8035906020019184602083028401116401000000008311171561135557600080fd5b919080806020026020016040519081016040528093929190818152602001838360200280828437600081840152601f19601f820116905080830192505050505050509192919290803590602001906401000000008111156113b557600080fd5b8201836020820111156113c757600080fd5b803590602001918460208302840111640100000000831117156113e957600080fd5b919080806020026020016040519081016040528093929190818152602001838360200280828437600081840152601f19601f8201169050808301925050505050505091929192908035906020019064010000000081111561144957600080fd5b82018360208201111561145b57600080fd5b8035906020019184602083028401116401000000008311171561147d57600080fd5b919080806020026020016040519081016040528093929190818152602001838360200280828437600081840152601f19601f820116905080830192505050505050509192919290505050612c5a565b005b61150a600480360360408110156114e457600080fd5b81019080803560ff169060200190929190803560ff169060200190929190505050612ded565b604051808261ffff1661ffff16815260200191505060405180910390f35b611530612e09565b6040518082815260200191505060405180910390f35b6115726004803603602081101561155c57600080fd5b8101908080359060200190929190505050612e12565b6040518082815260200191505060405180910390f35b6115b46004803603602081101561159e57600080fd5b8101908080359060200190929190505050612eb5565b6040518082815260200191505060405180910390f35b61160a600480360360608110156115e057600080fd5b81019080803590602001909291908035906020019092919080359060200190929190505050612ed6565b604051808381526020018281526020019250505060405180910390f35b6116536004803603602081101561163d57600080fd5b8101908080359060200190929190505050613025565b604051808215151515815260200191505060405180910390f35b6116996004803603602081101561168357600080fd5b81019080803590602001909291905050506130cd565b6040518082815260200191505060405180910390f35b611819600480360360a08110156116c557600080fd5b810190808035906020019092919080359060200190929190803590602001906401000000008111156116f657600080fd5b82018360208201111561170857600080fd5b8035906020019184602083028401116401000000008311171561172a57600080fd5b919080806020026020016040519081016040528093929190818152602001838360200280828437600081840152601f19601f8201169050808301925050505050505091929192908035906020019064010000000081111561178a57600080fd5b82018360208201111561179c57600080fd5b803590602001918460208302840111640100000000831117156117be57600080fd5b919080806020026020016040519081016040528093929190818152602001838360200280828437600081840152601f19601f820116905080830192505050505050509192919290803515159060200190929190505050613183565b005b61182361352c565b604051808273ffffffffffffffffffffffffffffffffffffffff1673ffffffffffffffffffffffffffffffffffffffff16815260200191505060405180910390f35b6118916004803603602081101561187b57600080fd5b8101908080359060200190929190505050613556565b6040518082815260200191505060405180910390f35b6119f1600480360360408110156118bd57600080fd5b81019080803590602001906401000000008111156118da57600080fd5b8201836020820111156118ec57600080fd5b8035906020019184602083028401116401000000008311171561190e57600080fd5b919080806020026020016040519081016040528093929190818152602001838360200280828437600081840152601f19601f8201169050808301925050505050505091929192908035906020019064010000000081111561196e57600080fd5b82018360208201111561198057600080fd5b803590602001918460208302840111640100000000831117156119a257600080fd5b919080806020026020016040519081016040528093929190818152602001838360200280828437600081840152601f19601f8201169050808301925050505050505091929192905050506135ee565b6040518080602001828103825283818151815260200191508051906020019060200280838360005b83811015611a34578082015181840152602081019050611a19565b505050509050019250505060405180910390f35b611a7460048036036020811015611a5e57600080fd5b81019080803590602001909291905050506136da565b604051808273ffffffffffffffffffffffffffffffffffffffff1673ffffffffffffffffffffffffffffffffffffffff16815260200191505060405180910390f35b611abe613795565b604051808260ff1660ff16815260200191505060405180910390f35b611b0660048036036020811015611af057600080fd5b810190808035906020019092919050505061379a565b6040518082815260200191505060405180910390f35b611b4860048036036020811015611b3257600080fd5b81019080803590602001909291905050506137b7565b6040518082815260200191505060405180910390f35b611be46004803603610380811015611b7557600080fd5b8101908080359060200190929190803590602001909291908061032001906019806020026040519081016040528092919082601960200280828437600081840152601f19601f8201169050808301925050505050509192919290803560ff169060200190929190505050613852565b005b611c1c60048036036040811015611bfc57600080fd5b81019080803590602001909291908035906020019092919050505061396e565b6040518082815260200191505060405180910390f35b611c5e60048036036020811015611c4857600080fd5b8101908080359060200190929190505050613a3d565b6040518082815260200191505060405180910390f35b611cb660048036036020811015611c8a57600080fd5b81019080803573ffffffffffffffffffffffffffffffffffffffff169060200190929190505050613ae0565b005b611d6e60048036036020811015611cce57600080fd5b8101908080359060200190640100000000811115611ceb57600080fd5b820183602082011115611cfd57600080fd5b80359060200191846020830284011164010000000083111715611d1f57600080fd5b919080806020026020016040519081016040528093929190818152602001838360200280828437600081840152601f19601f820116905080830192505050505050509192919290505050613b24565b6040518082815260200191505060405180910390f35b611db060048036036020811015611d9a57600080fd5b8101908080359060200190929190505050613b95565b6040518082815260200191505060405180910390f35b611e7c60048036036020811015611ddc57600080fd5b8101908080359060200190640100000000811115611df957600080fd5b820183602082011115611e0b57600080fd5b80359060200191846020830284011164010000000083111715611e2d57600080fd5b919080806020026020016040519081016040528093929190818152602001838360200280828437600081840152601f19601f820116905080830192505050505050509192919290505050613c25565b6040518082815260200191505060405180910390f35b611ebe60048036036020811015611ea857600080fd5b8101908080359060200190929190505050613de0565b604051808215151515815260200191505060405180910390f35b611ee0613e03565b6040518080602001828103825283818151815260200191508051906020019060200280838360005b83811015611f23578082015181840152602081019050611f08565b505050509050019250505060405180910390f35b611f6360048036036020811015611f4d57600080fd5b8101908080359060200190929190505050613e08565b6040518082815260200191505060405180910390f35b611fbb60048036036020811015611f8f57600080fd5b81019080803573ffffffffffffffffffffffffffffffffffffffff169060200190929190505050613eab565b005b611fed60048036036020811015611fd357600080fd5b81019080803561ffff169060200190929190505050613eee565b604051808360ff1660ff1681526020018260ff1660ff1681526020019250505060405180910390f35b606061202182613f0e565b612093576040517f08c379a00000000000000000000000000000000000000000000000000000000081526004018080602001828103825260118152602001807f756e6578697374656e74206c656167756500000000000000000000000000000081525060200191505060405180910390fd5b6003600083815260200190815260200160002060020180548060200260200160405190810160405280929190818152602001828054801561211b57602002820191906000526020600020906000905b82829054906101000a900461ffff1661ffff16815260200190600201906020826001010492830192600103820291508084116120e25790505b50505050509050919050565b600061213282613f0e565b6121a4576040517f08c379a00000000000000000000000000000000000000000000000000000000081526004018080602001828103825260118152602001807f756e6578697374656e74206c656167756500000000000000000000000000000081525060200191505060405180910390fd5b600182815481106121b157fe5b906000526020600020906005020160000160009054906101000a900460ff1660ff169050919050565b60006121e5826130cd565b4310159050919050565b60608060006121fe878761396e565b60001c90506122108787878785613f22565b925092505094509492505050565b61222788613de0565b61227c576040517f08c379a00000000000000000000000000000000000000000000000000000000081526004018080602001828103825260288152602001806153006028913960400191505060405180910390fd5b61228588612783565b156122f8576040517f08c379a00000000000000000000000000000000000000000000000000000000081526004018080602001828103825260188152602001807f6e6f74206368616c6c656e676561626c65206c6561677565000000000000000081525060200191505060405180910390fd5b600061230389613025565b905080156123155761231489612494565b5b7ff19a51839da277a55f6a0a5294bd53fd566a9c37614e7229f506da7a4e750d2f81604051808215151515815260200191505060405180910390a1505050505050505050565b61236484613de0565b6123b9576040517f08c379a00000000000000000000000000000000000000000000000000000000081526004018080602001828103825260288152602001806153006028913960400191505060405180910390fd5b6123c284612783565b15612435576040517f08c379a00000000000000000000000000000000000000000000000000000000081526004018080602001828103825260188152602001807f6e6f74206368616c6c656e676561626c65206c6561677565000000000000000081525060200191505060405180910390fd5b600061244085613025565b905080156124525761245185612494565b5b7ff19a51839da277a55f6a0a5294bd53fd566a9c37614e7229f506da7a4e750d2f81604051808215151515815260200191505060405180910390a15050505050565b61249d81613f0e565b61250f576040517f08c379a00000000000000000000000000000000000000000000000000000000081526004018080602001828103825260118152602001807f756e6578697374656e74206c656167756500000000000000000000000000000081525060200191505060405180910390fd5b60006003600083815260200190815260200160002060040181905550600073ffffffffffffffffffffffffffffffffffffffff16600260009054906101000a900473ffffffffffffffffffffffffffffffffffffffff1673ffffffffffffffffffffffffffffffffffffffff161461260f57600260009054906101000a900473ffffffffffffffffffffffffffffffffffffffff1673ffffffffffffffffffffffffffffffffffffffff166345e73685826040518263ffffffff1660e01b815260040180828152602001915050600060405180830381600087803b1580156125f657600080fd5b505af115801561260a573d6000803e3d6000fd5b505050505b50565b600061261d82613f0e565b61268f576040517f08c379a00000000000000000000000000000000000000000000000000000000081526004018080602001828103825260118152602001807f756e6578697374656e74206c656167756500000000000000000000000000000081525060200191505060405180910390fd5b60036000838152602001908152602001600020600401549050919050565b6060949350505050565b60006001808054905003905090565b60608060018451016040519080825280602002602001820160405280156126fc5781602001602082028038833980820191505090505b50905060008090505b84518110156127515784818151811061271a57fe5b602002602001015182828151811061272e57fe5b602002602001019061ffff16908161ffff16815250508080600101915050612705565b50828160018351038151811061276357fe5b602002602001019061ffff16908161ffff16815250508091505092915050565b60008082141561279657600190506127ba565b61279f82613de0565b6127ac57600090506127ba565b6127b582613b95565b431190505b919050565b606060006127cc84612eb5565b905060606127d985612016565b905060008285029050826040519080825280602002602001820160405280156128115781602001602082028038833980820191505090505b50935060008090505b8381101561286757828183018151811061283057fe5b602002602001015185828151811061284457fe5b602002602001019061ffff16908161ffff1681525050808060010191505061281a565b5050505092915050565b600061287c82613e08565b4310159050919050565b606061289182613f0e565b612903576040517f08c379a00000000000000000000000000000000000000000000000000000000081526004018080602001828103825260118152602001807f756e6578697374656e74206c656167756500000000000000000000000000000081525060200191505060405180910390fd5b6003600083815260200190815260200160002060010180548060200260200160405190810160405280929190818152602001828054801561296357602002820191906000526020600020905b81548152602001906001019080831161294f575b50505050509050919050565b60008061297e8186868661456a565b9150509392505050565b600082116129fe576040517f08c379a00000000000000000000000000000000000000000000000000000000081526004018080602001828103825260128152602001807f696e76616c696420696e697420626c6f636b000000000000000000000000000081525060200191505060405180910390fd5b60008111612a74576040517f08c379a00000000000000000000000000000000000000000000000000000000081526004018080602001828103825260128152602001807f696e76616c696420626c6f636b2073746570000000000000000000000000000081525060200191505060405180910390fd5b600060028460ff1681612a8357fe5b0660ff1614612afa576040517f08c379a000000000000000000000000000000000000000000000000000000000815260040180806020018281038252600f8152602001807f6f6464207465616d7320636f756e74000000000000000000000000000000000081525060200191505060405180910390fd5b60008360ff1611612b56576040517f08c379a00000000000000000000000000000000000000000000000000000000081526004018080602001828103825260238152602001806153286023913960400191505060405180910390fd5b60016040518060a001604052808560ff1681526020018481526020018381526020016000801b8152602001600060ff168152509080600181540180825580915050906001820390600052602060002090600502016000909192909190915060008201518160000160006101000a81548160ff021916908360ff16021790555060208201518160010155604082015181600201556060820151816003015560808201518160040160006101000a81548160ff021916908360ff1602179055505050507f5d69f37aa0f3d80654d5e87cc70b8464663e1e43be29aae3a06dcecef8471906612c406126b7565b6040518082815260200191505060405180910390a1505050565b612c6384613f0e565b612cd5576040517f08c379a00000000000000000000000000000000000000000000000000000000081526004018080602001828103825260118152602001807f756e6578697374656e74206c656167756500000000000000000000000000000081525060200191505060405180910390fd5b612cde846121da565b15612d51576040517f08c379a000000000000000000000000000000000000000000000000000000000815260040180806020018281038252600f8152602001807f66696e6973686564206c6561677565000000000000000000000000000000000081525060200191505060405180910390fd5b600060066000868152602001908152602001600020549050612d758185858561456a565b90506040516020018080602001828103825260048152602001807f544f444f000000000000000000000000000000000000000000000000000000008152506020019150506040516020818303038152906040528051906020012060066000878152602001908152602001600020819055505050505050565b60006101008360ff1602811790508160ff168117905092915050565b6000603c905090565b6000612e1d82613f0e565b612e8f576040517f08c379a00000000000000000000000000000000000000000000000000000000081526004018080602001828103825260118152602001807f756e6578697374656e74206c656167756500000000000000000000000000000081525060200191505060405180910390fd5b60018281548110612e9c57fe5b9060005260206000209060050201600201549050919050565b600080612ec183612127565b905060028181612ecd57fe5b04915050919050565b600080612ee28561379a565b8410612f56576040517f08c379a000000000000000000000000000000000000000000000000000000000815260040180806020018281038252600f8152602001807f77726f6e67206d6174636820646179000000000000000000000000000000000081525060200191505060405180910390fd5b612f5f85612eb5565b8310612fd3576040517f08c379a000000000000000000000000000000000000000000000000000000000815260040180806020018281038252600b8152602001807f77726f6e67206d6174636800000000000000000000000000000000000000000081525060200191505060405180910390fd5b6000612fde86612127565b90506001810385101561300357612ff6858583614708565b809350819450505061301c565b6130136001820386038583614708565b80945081935050505b50935093915050565b600061303082613f0e565b6130a2576040517f08c379a00000000000000000000000000000000000000000000000000000000081526004018080602001828103825260118152602001807f756e6578697374656e74206c656167756500000000000000000000000000000081525060200191505060405180910390fd5b6003600083815260200190815260200160002060050160009054906101000a900460ff169050919050565b60006130d882613f0e565b61314a576040517f08c379a00000000000000000000000000000000000000000000000000000000081526004018080602001828103825260118152602001807f756e6578697374656e74206c656167756500000000000000000000000000000081525060200191505060405180910390fd5b60006131558361379a565b9050600061316284613e08565b9050600061316f85612e12565b905080600184030282019350505050919050565b61318c85613f0e565b6131fe576040517f08c379a00000000000000000000000000000000000000000000000000000000081526004018080602001828103825260118152602001807f696e76616c6964206c656167756520696400000000000000000000000000000081525060200191505060405180910390fd5b613207856121da565b613279576040517f08c379a00000000000000000000000000000000000000000000000000000000081526004018080602001828103825260138152602001807f6c6561677565206e6f742066696e69736865640000000000000000000000000081525060200191505060405180910390fd5b61328285613de0565b156132f5576040517f08c379a000000000000000000000000000000000000000000000000000000000815260040180806020018281038252600f8152602001807f616c72656164792075706461746564000000000000000000000000000000000081525060200191505060405180910390fd5b8360036000878152602001908152602001600020600001819055508260036000878152602001908152602001600020600101908051906020019061333a929190615172565b50816003600087815260200190815260200160002060020190805190602001906133659291906151bf565b50336003600087815260200190815260200160002060030160006101000a81548173ffffffffffffffffffffffffffffffffffffffff021916908373ffffffffffffffffffffffffffffffffffffffff160217905550436003600087815260200190815260200160002060040181905550806003600087815260200190815260200160002060050160006101000a81548160ff021916908315150217905550600073ffffffffffffffffffffffffffffffffffffffff16600260009054906101000a900473ffffffffffffffffffffffffffffffffffffffff1673ffffffffffffffffffffffffffffffffffffffff161461352557600260009054906101000a900473ffffffffffffffffffffffffffffffffffffffff1673ffffffffffffffffffffffffffffffffffffffff16631f438a5b866000336040518463ffffffff1660e01b8152600401808481526020018381526020018273ffffffffffffffffffffffffffffffffffffffff1673ffffffffffffffffffffffffffffffffffffffff1681526020019350505050600060405180830381600087803b15801561350c57600080fd5b505af1158015613520573d6000803e3d6000fd5b505050505b5050505050565b6000600560009054906101000a900473ffffffffffffffffffffffffffffffffffffffff16905090565b600061356182613f0e565b6135d3576040517f08c379a00000000000000000000000000000000000000000000000000000000081526004018080602001828103825260118152602001807f756e6578697374656e74206c656167756500000000000000000000000000000081525060200191505060405180910390fd5b60066000838152602001908152602001600020549050919050565b60608082518451016040519080825280602002602001820160405280156136245781602001602082028038833980820191505090505b50905060008090505b84518110156136795784818151811061364257fe5b602002602001015182828151811061365657fe5b602002602001019061ffff16908161ffff1681525050808060010191505061362d565b5060008090505b83518110156136cf5783818151811061369557fe5b60200260200101518282875101815181106136ac57fe5b602002602001019061ffff16908161ffff16815250508080600101915050613680565b508091505092915050565b60006136e582613f0e565b613757576040517f08c379a00000000000000000000000000000000000000000000000000000000081526004018080602001828103825260118152602001807f756e6578697374656e74206c656167756500000000000000000000000000000081525060200191505060405180910390fd5b6003600083815260200190815260200160002060030160009054906101000a900473ffffffffffffffffffffffffffffffffffffffff169050919050565b601981565b6000806137a683612127565b905060018103600202915050919050565b60006137c282613f0e565b613834576040517f08c379a00000000000000000000000000000000000000000000000000000000081526004018080602001828103825260118152602001807f756e6578697374656e74206c656167756500000000000000000000000000000081525060200191505060405180910390fd5b60036000838152602001908152602001600020600001549050919050565b6139076000809054906101000a900473ffffffffffffffffffffffffffffffffffffffff1673ffffffffffffffffffffffffffffffffffffffff1663d9d63573856040518263ffffffff1660e01b81526004018082815260200191505060206040518083038186803b1580156138c757600080fd5b505afa1580156138db573d6000803e3d6000fd5b505050506040513d60208110156138f157600080fd5b8101908080519060200190929190505050612783565b61395c576040517f08c379a00000000000000000000000000000000000000000000000000000000081526004018080602001828103825260408152602001806152c06040913960400191505060405180910390fd5b6139688484848461476e565b50505050565b60008061397a84613e08565b9050600061398785612e12565b905060008482028301604051602001808281526020019150506040516020818303038152906040528051906020012090506000801b811415613a31576040517f08c379a000000000000000000000000000000000000000000000000000000000815260040180806020018281038252601c8152602001807f756e61626c6520746f207265747269766520626c6f636b20686173680000000081525060200191505060405180910390fd5b80935050505092915050565b6000613a4882613f0e565b613aba576040517f08c379a00000000000000000000000000000000000000000000000000000000081526004018080602001828103825260118152602001807f756e6578697374656e74206c656167756500000000000000000000000000000081525060200191505060405180910390fd5b60018281548110613ac757fe5b9060005260206000209060050201600301549050919050565b80600260006101000a81548173ffffffffffffffffffffffffffffffffffffffff021916908373ffffffffffffffffffffffffffffffffffffffff16021790555050565b6000816040516020018080602001828103825283818151815260200191508051906020019060200280838360005b83811015613b6d578082015181840152602081019050613b52565b5050505090500192505050604051602081830303815290604052805190602001209050919050565b6000613ba082613de0565b613c12576040517f08c379a00000000000000000000000000000000000000000000000000000000081526004018080602001828103825260128152602001807f6e6f742075706461746564206c6561677565000000000000000000000000000081525060200191505060405180910390fd5b603c613c1d83612612565b019050919050565b60006060600460009054906101000a900473ffffffffffffffffffffffffffffffffffffffff1673ffffffffffffffffffffffffffffffffffffffff166399d49eef846040518263ffffffff1660e01b81526004018080602001828103825283818151815260200191508051906020019060200280838360005b83811015613cba578082015181840152602081019050613c9f565b505050509050019250505060006040518083038186803b158015613cdd57600080fd5b505afa158015613cf1573d6000803e3d6000fd5b505050506040513d6000823e3d601f19601f820116820180604052506020811015613d1b57600080fd5b810190808051640100000000811115613d3357600080fd5b82810190506020810184811115613d4957600080fd5b8151856020820283011164010000000082111715613d6657600080fd5b50509291905050509050806040516020018080602001828103825283818151815260200191508051906020019060200280838360005b83811015613db7578082015181840152602081019050613d9c565b505050509050019250505060405160208183030381529060405280519060200120915050919050565b600080600360008481526020019081526020016000206004015414159050919050565b606090565b6000613e1382613f0e565b613e85576040517f08c379a00000000000000000000000000000000000000000000000000000000081526004018080602001828103825260118152602001807f756e6578697374656e74206c656167756500000000000000000000000000000081525060200191505060405180910390fd5b60018281548110613e9257fe5b9060005260206000209060050201600101549050919050565b806000806101000a81548173ffffffffffffffffffffffffffffffffffffffff021916908373ffffffffffffffffffffffffffffffffffffffff16021790555050565b6000806101008361ffff1681613f0057fe5b04915060ff83169050915091565b6000613f186126b7565b8211159050919050565b6060806000613f3088612eb5565b905085915060008090505b8181101561455e57600080613f518b8b85612ed6565b915091506060600460009054906101000a900473ffffffffffffffffffffffffffffffffffffffff1673ffffffffffffffffffffffffffffffffffffffff1663422d1df28b856040518363ffffffff1660e01b81526004018080602001838152602001828103825284818151815260200191508051906020019060200280838360005b83811015613fef578082015181840152602081019050613fd4565b50505050905001935050505060006040518083038186803b15801561401357600080fd5b505afa158015614027573d6000803e3d6000fd5b505050506040513d6000823e3d601f19601f82011682018060405250602081101561405157600080fd5b81019080805164010000000081111561406957600080fd5b8281019050602081018481111561407f57600080fd5b815185602082028301116401000000008211171561409c57600080fd5b505092919050505090506060600460009054906101000a900473ffffffffffffffffffffffffffffffffffffffff1673ffffffffffffffffffffffffffffffffffffffff1663422d1df28c856040518363ffffffff1660e01b81526004018080602001838152602001828103825284818151815260200191508051906020019060200280838360005b83811015614140578082015181840152602081019050614125565b50505050905001935050505060006040518083038186803b15801561416457600080fd5b505afa158015614178573d6000803e3d6000fd5b505050506040513d6000823e3d601f19601f8201168201806040525060208110156141a257600080fd5b8101908080516401000000008111156141ba57600080fd5b828101905060208101848111156141d057600080fd5b81518560208202830111640100000000821117156141ed57600080fd5b50509291905050509050600060608061420885858f8f614a0d565b9250925092506142188b846126c6565b9a50600460009054906101000a900473ffffffffffffffffffffffffffffffffffffffff1673ffffffffffffffffffffffffffffffffffffffff1663221c501a8b89856040518463ffffffff1660e01b8152600401808060200184815260200180602001838103835286818151815260200191508051906020019060200280838360005b838110156142b757808201518184015260208101905061429c565b50505050905001838103825284818151815260200191508051906020019060200280838360005b838110156142f95780820151818401526020810190506142de565b505050509050019550505050505060006040518083038186803b15801561431f57600080fd5b505afa158015614333573d6000803e3d6000fd5b505050506040513d6000823e3d601f19601f82011682018060405250602081101561435d57600080fd5b81019080805164010000000081111561437557600080fd5b8281019050602081018481111561438b57600080fd5b81518560208202830111640100000000821117156143a857600080fd5b50509291905050509950600460009054906101000a900473ffffffffffffffffffffffffffffffffffffffff1673ffffffffffffffffffffffffffffffffffffffff1663221c501a8b88846040518463ffffffff1660e01b8152600401808060200184815260200180602001838103835286818151815260200191508051906020019060200280838360005b8381101561444f578082015181840152602081019050614434565b50505050905001838103825284818151815260200191508051906020019060200280838360005b83811015614491578082015181840152602081019050614476565b505050509050019550505050505060006040518083038186803b1580156144b757600080fd5b505afa1580156144cb573d6000803e3d6000fd5b505050506040513d6000823e3d601f19601f8201168201806040525060208110156144f557600080fd5b81019080805164010000000081111561450d57600080fd5b8281019050602081018481111561452357600080fd5b815185602082028301116401000000008211171561454057600080fd5b50509291905050509950505050505050508080600101915050613f3b565b50509550959350505050565b60008084519050808451146145e7576040517f08c379a000000000000000000000000000000000000000000000000000000000815260040180806020018281038252601d8152602001807f7465616d7320616e642074616374696373496473206d69736d6174636800000081525060200191505060405180910390fd5b8083511461465d576040517f08c379a00000000000000000000000000000000000000000000000000000000081526004018080602001828103825260198152602001807f7465616d7320616e6420626c6f636b73206d69736d617463680000000000000081525060200191505060405180910390fd5b85915060008090505b818110156146fb578286828151811061467b57fe5b602002602001015186838151811061468f57fe5b60200260200101518684815181106146a357fe5b6020026020010151604051602001808581526020018481526020018360ff1660ff1681526020018281526020019450505050506040516020818303038152906040528051906020012092508080600101915050614666565b5081915050949350505050565b6000806000809050600085111561472a57614727868686030185614bd2565b90505b600061473b87600188010186614bd2565b905060006002888161474957fe5b06141561475d578181935093505050614766565b80829350935050505b935093915050565b6001848154811061477b57fe5b906000526020600020906005020160000160009054906101000a900460ff1660ff16600185815481106147aa57fe5b906000526020600020906005020160040160009054906101000a900460ff1660ff161061483f576040517f08c379a00000000000000000000000000000000000000000000000000000000081526004018080602001828103825260138152602001807f6c656167756520616c72656164792066756c6c0000000000000000000000000081525060200191505060405180910390fd5b6000809054906101000a900473ffffffffffffffffffffffffffffffffffffffff1673ffffffffffffffffffffffffffffffffffffffff16630215412784866001888154811061488b57fe5b906000526020600020906005020160040160009054906101000a900460ff166040518463ffffffff1660e01b8152600401808481526020018381526020018260ff1660ff1681526020019350505050600060405180830381600087803b1580156148f457600080fd5b505af1158015614908573d6000803e3d6000fd5b505050506001848154811061491957fe5b9060005260206000209060050201600301548383836040516020018085815260200184815260200183601960200280838360005b8381101561496857808201518184015260208101905061494d565b505050509050018260ff1660ff16815260200194505050505060405160208183030381529060405280519060200120600185815481106149a457fe5b906000526020600020906005020160030181905550600184815481106149c657fe5b9060005260206000209060050201600401600081819054906101000a900460ff168092919060010191906101000a81548160ff021916908360ff1602179055505050505050565b6000606080600080600560009054906101000a900473ffffffffffffffffffffffffffffffffffffffff1673ffffffffffffffffffffffffffffffffffffffff16630a507e9f878b8b8b600081518110614a6357fe5b60200260200101518c600181518110614a7857fe5b60200260200101516040518663ffffffff1660e01b81526004018086815260200180602001806020018560ff1660ff1681526020018460ff1660ff168152602001838103835287818151815260200191508051906020019060200280838360005b83811015614af4578082015181840152602081019050614ad9565b50505050905001838103825286818151815260200191508051906020019060200280838360005b83811015614b36578082015181840152602081019050614b1b565b50505050905001975050505050505050604080518083038186803b158015614b5d57600080fd5b505afa158015614b71573d6000803e3d6000fd5b505050506040513d6040811015614b8757600080fd5b81019080805190602001909291908051906020019092919050505091509150614bb08282612ded565b9450614bbe89898484614bf3565b809450819550505050509450945094915050565b600081831015614be457829050614bed565b60018203830390505b92915050565b606080600080614c0588888888614ebe565b91509150600460009054906101000a900473ffffffffffffffffffffffffffffffffffffffff1673ffffffffffffffffffffffffffffffffffffffff16635c01078289846040518363ffffffff1660e01b815260040180806020018360ff1660ff168152602001828103825284818151815260200191508051906020019060200280838360005b83811015614ca7578082015181840152602081019050614c8c565b50505050905001935050505060006040518083038186803b158015614ccb57600080fd5b505afa158015614cdf573d6000803e3d6000fd5b505050506040513d6000823e3d601f19601f820116820180604052506020811015614d0957600080fd5b810190808051640100000000811115614d2157600080fd5b82810190506020810184811115614d3757600080fd5b8151856020820283011164010000000082111715614d5457600080fd5b50509291905050509350600460009054906101000a900473ffffffffffffffffffffffffffffffffffffffff1673ffffffffffffffffffffffffffffffffffffffff16635c01078288836040518363ffffffff1660e01b815260040180806020018360ff1660ff168152602001828103825284818151815260200191508051906020019060200280838360005b83811015614dfc578082015181840152602081019050614de1565b50505050905001935050505060006040518083038186803b158015614e2057600080fd5b505afa158015614e34573d6000803e3d6000fd5b505050506040513d6000823e3d601f19601f820116820180604052506020811015614e5e57600080fd5b810190808051640100000000811115614e7657600080fd5b82810190506020810184811115614e8c57600080fd5b8151856020820283011164010000000082111715614ea957600080fd5b50509291905050509250505094509492505050565b6000808260ff168460ff161415614ee15760008081915080905091509150615169565b6000600460009054906101000a900473ffffffffffffffffffffffffffffffffffffffff1673ffffffffffffffffffffffffffffffffffffffff1663bd64d4fa886040518263ffffffff1660e01b81526004018080602001828103825283818151815260200191508051906020019060200280838360005b83811015614f74578082015181840152602081019050614f59565b505050509050019250505060206040518083038186803b158015614f9757600080fd5b505afa158015614fab573d6000803e3d6000fd5b505050506040513d6020811015614fc157600080fd5b810190808051906020019092919050505090506000600460009054906101000a900473ffffffffffffffffffffffffffffffffffffffff1673ffffffffffffffffffffffffffffffffffffffff1663bd64d4fa886040518263ffffffff1660e01b81526004018080602001828103825283818151815260200191508051906020019060200280838360005b8381101561506757808201518184015260208101905061504c565b505050509050019250505060206040518083038186803b15801561508a57600080fd5b505afa15801561509e573d6000803e3d6000fd5b505050506040513d60208110156150b457600080fd5b8101908080519060200190929190505050905080821415615101578460ff168660ff16116150eb57600060058191508090506150f6565b600560008191508090505b935093505050615169565b8082111561513b578460ff168660ff16116151255760006008819150809050615130565b600260008191508090505b935093505050615169565b8460ff168660ff16116151575760006002819150809050615162565b600860008191508090505b9350935050505b94509492505050565b8280548282559060005260206000209081019282156151ae579160200282015b828111156151ad578251825591602001919060010190615192565b5b5090506151bb9190615269565b5090565b82805482825590600052602060002090600f016010900481019282156152585791602002820160005b8382111561522857835183826101000a81548161ffff021916908361ffff16021790555092602001926002016020816001010492830192600103026151e8565b80156152565782816101000a81549061ffff0219169055600201602081600101049283019260010302615228565b505b509050615265919061528e565b5090565b61528b91905b8082111561528757600081600090555060010161526f565b5090565b90565b6152bc91905b808211156152b857600081816101000a81549061ffff021916905550600101615294565b5090565b9056fe7465616d2063616e6e6f74207369676e2061206c65616775652062656361757365207374696c6c20696e2061206e6f6e2d7665726966696564206c65616775656e6f742075706461746564206c65616775652e204e6f206368616c6c656e676520616c6c6f77656463616e6e6f7420637265617465206c6561677565732077697468206e6f207465616d73a265627a7a723058204629899386019d81fb8444e1650e243c68d086dd2e4bd88d504c54a08dfc801964736f6c63430005090032",
  "source": "pragma solidity ^0.5.0;\n\nimport \"./LeagueChallengeable.sol\";\nimport \"./LeaguesComputer.sol\";\n\ncontract Leagues is LeagueChallengeable {\n    constructor(address engine, address state) \n    public \n    LeagueChallengeable(engine, state)\n    {\n    }    \n}",
  "sourcePath": "/home/asini/workspace/crypto-soccer/truffle-core/contracts/core/Leagues.sol",
  "compiler": {
    "name": "solc",
    "version": "0.5.9+commit.e560f70d.Emscripten.clang"
  },
  "schemaVersion": "3.0.10",
  "updatedAt": "2019-07-18T13:21:26.749Z",
  "devdoc": {
    "methods": {}
  },
  "userdoc": {
    "methods": {}
  }
}