{
  "contractName": "PlayerState",
  "abi": [
    {
      "constant": true,
      "inputs": [
        {
          "name": "state",
          "type": "uint256"
        }
      ],
      "name": "isValidPlayerState",
      "outputs": [
        {
          "name": "",
          "type": "bool"
        }
      ],
      "payable": false,
      "stateMutability": "pure",
      "type": "function"
    },
    {
      "constant": true,
      "inputs": [
        {
          "name": "defence",
          "type": "uint256"
        },
        {
          "name": "speed",
          "type": "uint256"
        },
        {
          "name": "pass",
          "type": "uint256"
        },
        {
          "name": "shoot",
          "type": "uint256"
        },
        {
          "name": "endurance",
          "type": "uint256"
        },
        {
          "name": "monthOfBirthInUnixTime",
          "type": "uint256"
        },
        {
          "name": "playerId",
          "type": "uint256"
        },
        {
          "name": "currentTeamId",
          "type": "uint256"
        },
        {
          "name": "currentShirtNum",
          "type": "uint256"
        },
        {
          "name": "prevLeagueId",
          "type": "uint256"
        },
        {
          "name": "prevTeamPosInLeague",
          "type": "uint256"
        },
        {
          "name": "prevShirtNumInLeague",
          "type": "uint256"
        },
        {
          "name": "lastSaleBlock",
          "type": "uint256"
        }
      ],
      "name": "playerStateCreate",
      "outputs": [
        {
          "name": "state",
          "type": "uint256"
        }
      ],
      "payable": false,
      "stateMutability": "pure",
      "type": "function"
    },
    {
      "constant": true,
      "inputs": [
        {
          "name": "state",
          "type": "uint256"
        },
        {
          "name": "value",
          "type": "uint256"
        }
      ],
      "name": "setPrevLeagueId",
      "outputs": [
        {
          "name": "",
          "type": "uint256"
        }
      ],
      "payable": false,
      "stateMutability": "pure",
      "type": "function"
    },
    {
      "constant": true,
      "inputs": [
        {
          "name": "state",
          "type": "uint256"
        },
        {
          "name": "value",
          "type": "uint256"
        }
      ],
      "name": "setPrevTeamPosInLeague",
      "outputs": [
        {
          "name": "",
          "type": "uint256"
        }
      ],
      "payable": false,
      "stateMutability": "pure",
      "type": "function"
    },
    {
      "constant": true,
      "inputs": [
        {
          "name": "playerState",
          "type": "uint256"
        },
        {
          "name": "delta",
          "type": "uint16"
        }
      ],
      "name": "playerStateEvolve",
      "outputs": [
        {
          "name": "evolvedState",
          "type": "uint256"
        }
      ],
      "payable": false,
      "stateMutability": "pure",
      "type": "function"
    },
    {
      "constant": true,
      "inputs": [
        {
          "name": "playerState",
          "type": "uint256"
        },
        {
          "name": "teamId",
          "type": "uint256"
        }
      ],
      "name": "setCurrentTeamId",
      "outputs": [
        {
          "name": "",
          "type": "uint256"
        }
      ],
      "payable": false,
      "stateMutability": "pure",
      "type": "function"
    },
    {
      "constant": true,
      "inputs": [
        {
          "name": "state",
          "type": "uint256"
        },
        {
          "name": "currentShirtNum",
          "type": "uint256"
        }
      ],
      "name": "setCurrentShirtNum",
      "outputs": [
        {
          "name": "",
          "type": "uint256"
        }
      ],
      "payable": false,
      "stateMutability": "pure",
      "type": "function"
    },
    {
      "constant": true,
      "inputs": [
        {
          "name": "state",
          "type": "uint256"
        },
        {
          "name": "lastSaleBlock",
          "type": "uint256"
        }
      ],
      "name": "setLastSaleBlock",
      "outputs": [
        {
          "name": "",
          "type": "uint256"
        }
      ],
      "payable": false,
      "stateMutability": "pure",
      "type": "function"
    },
    {
      "constant": true,
      "inputs": [
        {
          "name": "playerState",
          "type": "uint256"
        }
      ],
      "name": "getLastSaleBlock",
      "outputs": [
        {
          "name": "",
          "type": "uint256"
        }
      ],
      "payable": false,
      "stateMutability": "pure",
      "type": "function"
    },
    {
      "constant": true,
      "inputs": [
        {
          "name": "playerState",
          "type": "uint256"
        }
      ],
      "name": "getPrevShirtNumInLeague",
      "outputs": [
        {
          "name": "",
          "type": "uint256"
        }
      ],
      "payable": false,
      "stateMutability": "pure",
      "type": "function"
    },
    {
      "constant": true,
      "inputs": [
        {
          "name": "playerState",
          "type": "uint256"
        }
      ],
      "name": "getPrevTeamPosInLeague",
      "outputs": [
        {
          "name": "",
          "type": "uint256"
        }
      ],
      "payable": false,
      "stateMutability": "pure",
      "type": "function"
    },
    {
      "constant": true,
      "inputs": [
        {
          "name": "playerState",
          "type": "uint256"
        }
      ],
      "name": "getPrevLeagueId",
      "outputs": [
        {
          "name": "",
          "type": "uint256"
        }
      ],
      "payable": false,
      "stateMutability": "pure",
      "type": "function"
    },
    {
      "constant": true,
      "inputs": [
        {
          "name": "playerState",
          "type": "uint256"
        }
      ],
      "name": "getCurrentShirtNum",
      "outputs": [
        {
          "name": "",
          "type": "uint256"
        }
      ],
      "payable": false,
      "stateMutability": "pure",
      "type": "function"
    },
    {
      "constant": true,
      "inputs": [
        {
          "name": "playerState",
          "type": "uint256"
        }
      ],
      "name": "getCurrentTeamId",
      "outputs": [
        {
          "name": "",
          "type": "uint256"
        }
      ],
      "payable": false,
      "stateMutability": "pure",
      "type": "function"
    },
    {
      "constant": true,
      "inputs": [
        {
          "name": "playerState",
          "type": "uint256"
        }
      ],
      "name": "getPlayerId",
      "outputs": [
        {
          "name": "",
          "type": "uint256"
        }
      ],
      "payable": false,
      "stateMutability": "pure",
      "type": "function"
    },
    {
      "constant": true,
      "inputs": [
        {
          "name": "playerState",
          "type": "uint256"
        }
      ],
      "name": "getMonthOfBirthInUnixTime",
      "outputs": [
        {
          "name": "",
          "type": "uint256"
        }
      ],
      "payable": false,
      "stateMutability": "pure",
      "type": "function"
    },
    {
      "constant": true,
      "inputs": [
        {
          "name": "playerState",
          "type": "uint256"
        }
      ],
      "name": "getDefence",
      "outputs": [
        {
          "name": "",
          "type": "uint256"
        }
      ],
      "payable": false,
      "stateMutability": "pure",
      "type": "function"
    },
    {
      "constant": true,
      "inputs": [
        {
          "name": "playerState",
          "type": "uint256"
        }
      ],
      "name": "getSpeed",
      "outputs": [
        {
          "name": "",
          "type": "uint256"
        }
      ],
      "payable": false,
      "stateMutability": "pure",
      "type": "function"
    },
    {
      "constant": true,
      "inputs": [
        {
          "name": "playerState",
          "type": "uint256"
        }
      ],
      "name": "getPass",
      "outputs": [
        {
          "name": "",
          "type": "uint256"
        }
      ],
      "payable": false,
      "stateMutability": "pure",
      "type": "function"
    },
    {
      "constant": true,
      "inputs": [
        {
          "name": "playerState",
          "type": "uint256"
        }
      ],
      "name": "getShoot",
      "outputs": [
        {
          "name": "",
          "type": "uint256"
        }
      ],
      "payable": false,
      "stateMutability": "pure",
      "type": "function"
    },
    {
      "constant": true,
      "inputs": [
        {
          "name": "playerState",
          "type": "uint256"
        }
      ],
      "name": "getEndurance",
      "outputs": [
        {
          "name": "",
          "type": "uint256"
        }
      ],
      "payable": false,
      "stateMutability": "pure",
      "type": "function"
    },
    {
      "constant": true,
      "inputs": [
        {
          "name": "playerState",
          "type": "uint256"
        }
      ],
      "name": "getSkills",
      "outputs": [
        {
          "name": "",
          "type": "uint256"
        }
      ],
      "payable": false,
      "stateMutability": "pure",
      "type": "function"
    },
    {
      "constant": true,
      "inputs": [
        {
          "name": "playerState",
          "type": "uint256"
        }
      ],
      "name": "getSkillsVec",
      "outputs": [
        {
          "name": "skills",
          "type": "uint16[5]"
        }
      ],
      "payable": false,
      "stateMutability": "pure",
      "type": "function"
    }
  ],
  "bytecode": "0x608060405234801561001057600080fd5b50611927806100206000396000f3fe608060405234801561001057600080fd5b506004361061014c5760003560e01c80637ee0aebc116100c3578063c566b5bc1161007c578063c566b5bc14610670578063cc1cc3d7146106b2578063cd2105e81461071c578063eb78b7b71461075e578063f4385912146107a0578063f8bd3e6e146107e25761014c565b80637ee0aebc146104ae57806385053566146104fa5780638d216b521461053c578063a95e858b1461058c578063af76cd01146105d8578063c37b1c25146106245761014c565b806351585b491161011557806351585b49146102a9578063530f63d6146102eb57806355a6f86f146103a657806358a7a46a146103e857806365b4b4761461042a578063666d00701461046c5761014c565b806292bf781461015157806319a4860c14610193578063258e5d90146101d957806347f3d7161461021b5780634b93f75314610267575b600080fd5b61017d6004803603602081101561016757600080fd5b8101908080359060200190929190505050610824565b6040518082815260200191505060405180910390f35b6101bf600480360360208110156101a957600080fd5b81019080803590602001909291905050506108ad565b604051808215151515815260200191505060405180910390f35b610205600480360360208110156101ef57600080fd5b81019080803590602001909291905050506108c2565b6040518082815260200191505060405180910390f35b6102516004803603604081101561023157600080fd5b81019080803590602001909291908035906020019092919050505061094f565b6040518082815260200191505060405180910390f35b6102936004803603602081101561027d57600080fd5b81019080803590602001909291905050506109f0565b6040518082815260200191505060405180910390f35b6102d5600480360360208110156102bf57600080fd5b8101908080359060200190929190505050610a7d565b6040518082815260200191505060405180910390f35b61039060048036036101a081101561030257600080fd5b8101908080359060200190929190803590602001909291908035906020019092919080359060200190929190803590602001909291908035906020019092919080359060200190929190803590602001909291908035906020019092919080359060200190929190803590602001909291908035906020019092919080359060200190929190505050610b0a565b6040518082815260200191505060405180910390f35b6103d2600480360360208110156103bc57600080fd5b8101908080359060200190929190505050610f2a565b6040518082815260200191505060405180910390f35b610414600480360360208110156103fe57600080fd5b8101908080359060200190929190505050610fb7565b6040518082815260200191505060405180910390f35b6104566004803603602081101561044057600080fd5b8101908080359060200190929190505050611043565b6040518082815260200191505060405180910390f35b6104986004803603602081101561048257600080fd5b81019080803590602001909291905050506110d0565b6040518082815260200191505060405180910390f35b6104e4600480360360408110156104c457600080fd5b81019080803590602001909291908035906020019092919050505061115c565b6040518082815260200191505060405180910390f35b6105266004803603602081101561051057600080fd5b81019080803590602001909291905050506111f8565b6040518082815260200191505060405180910390f35b6105766004803603604081101561055257600080fd5b8101908080359060200190929190803561ffff169060200190929190505050611285565b6040518082815260200191505060405180910390f35b6105c2600480360360408110156105a257600080fd5b81019080803590602001909291908035906020019092919050505061130b565b6040518082815260200191505060405180910390f35b61060e600480360360408110156105ee57600080fd5b8101908080359060200190929190803590602001909291905050506113aa565b6040518082815260200191505060405180910390f35b61065a6004803603604081101561063a57600080fd5b810190808035906020019092919080359060200190929190505050611444565b6040518082815260200191505060405180910390f35b61069c6004803603602081101561068657600080fd5b81019080803590602001909291905050506114e9565b6040518082815260200191505060405180910390f35b6106de600480360360208110156106c857600080fd5b8101908080359060200190929190505050611579565b6040518082600560200280838360005b838110156107095780820151818401526020810190506106ee565b5050505090500191505060405180910390f35b6107486004803603602081101561073257600080fd5b81019080803590602001909291905050506116ce565b6040518082815260200191505060405180910390f35b61078a6004803603602081101561077457600080fd5b810190808035906020019092919050505061175d565b6040518082815260200191505060405180910390f35b6107cc600480360360208110156107b657600080fd5b81019080803590602001909291905050506117e9565b6040518082815260200191505060405180910390f35b61080e600480360360208110156107f857600080fd5b81019080803590602001909291905050506117fd565b6040518082815260200191505060405180910390f35b600061082f826108ad565b6108a1576040517f08c379a00000000000000000000000000000000000000000000000000000000081526004018080602001828103825260148152602001807f696e76616c696420706c6179657220737461746500000000000000000000000081525060200191505060405180910390fd5b60ba82901c9050919050565b6000806108b9836117e9565b14159050919050565b60006108cd826108ad565b61093f576040517f08c379a00000000000000000000000000000000000000000000000000000000081526004018080602001828103825260148152602001807f696e76616c696420706c6179657220737461746500000000000000000000000081525060200191505060405180910390fd5b613fff60ba83901c169050919050565b6000630200000082106109ca576040517f08c379a000000000000000000000000000000000000000000000000000000000815260040180806020018281038252601a8152602001807f707265764c6561677565496478206f7574206f6620626f756e6400000000000081525060200191505060405180910390fd5b6d7fffffc0000000000000000000001983169250605682901b8317925082905092915050565b60006109fb826108ad565b610a6d576040517f08c379a00000000000000000000000000000000000000000000000000000000081526004018080602001828103825260148152602001807f696e76616c696420706c6179657220737461746500000000000000000000000081525060200191505060405180910390fd5b613fff60e483901c169050919050565b6000610a88826108ad565b610afa576040517f08c379a00000000000000000000000000000000000000000000000000000000081526004018080602001828103825260148152602001807f696e76616c696420706c6179657220737461746500000000000000000000000081525060200191505060405180910390fd5b613fff60f283901c169050919050565b60006140008e10610b83576040517f08c379a00000000000000000000000000000000000000000000000000000000081526004018080602001828103825260148152602001807f646566656e6365206f7574206f6620626f756e6400000000000000000000000081525060200191505060405180910390fd5b6140008d10610bfa576040517f08c379a00000000000000000000000000000000000000000000000000000000081526004018080602001828103825260148152602001807f646566656e6365206f7574206f6620626f756e6400000000000000000000000081525060200191505060405180910390fd5b6140008c10610c71576040517f08c379a00000000000000000000000000000000000000000000000000000000081526004018080602001828103825260148152602001807f646566656e6365206f7574206f6620626f756e6400000000000000000000000081525060200191505060405180910390fd5b6140008b10610ce8576040517f08c379a00000000000000000000000000000000000000000000000000000000081526004018080602001828103825260148152602001807f646566656e6365206f7574206f6620626f756e6400000000000000000000000081525060200191505060405180910390fd5b6140008a10610d5f576040517f08c379a00000000000000000000000000000000000000000000000000000000081526004018080602001828103825260148152602001807f646566656e6365206f7574206f6620626f756e6400000000000000000000000081525060200191505060405180910390fd5b6140008910610db9576040517f08c379a00000000000000000000000000000000000000000000000000000000081526004018080602001828103825260238152602001806118af6023913960400191505060405180910390fd5b600088118015610dcc5750631000000088105b610e3e576040517f08c379a00000000000000000000000000000000000000000000000000000000081526004018080602001828103825260158152602001807f706c617965724964206f7574206f6620626f756e64000000000000000000000081525060200191505060405180910390fd5b60208310610e97576040517f08c379a00000000000000000000000000000000000000000000000000000000081526004018080602001828103825260218152602001806118d26021913960400191505060405180910390fd5b60f28e901b905060e48d901b8117905060d68c901b8117905060c88b901b8117905060ba8a901b8117905060ac89901b81179050609088901b81179050610ede8188611444565b9050610eea818761130b565b9050610ef6818661094f565b9050610f02818561115c565b9050604983901b81179050610f1781836113aa565b90509d9c50505050505050505050505050565b6000610f35826108ad565b610fa7576040517f08c379a00000000000000000000000000000000000000000000000000000000081526004018080602001828103825260148152602001807f696e76616c696420706c6179657220737461746500000000000000000000000081525060200191505060405180910390fd5b613fff60d683901c169050919050565b6000610fc2826108ad565b611034576040517f08c379a00000000000000000000000000000000000000000000000000000000081526004018080602001828103825260148152602001807f696e76616c696420706c6179657220737461746500000000000000000000000081525060200191505060405180910390fd5b60ff604e83901c169050919050565b600061104e826108ad565b6110c0576040517f08c379a00000000000000000000000000000000000000000000000000000000081526004018080602001828103825260148152602001807f696e76616c696420706c6179657220737461746500000000000000000000000081525060200191505060405180910390fd5b613fff60c883901c169050919050565b60006110db826108ad565b61114d576040517f08c379a00000000000000000000000000000000000000000000000000000000081526004018080602001828103825260148152602001807f696e76616c696420706c6179657220737461746500000000000000000000000081525060200191505060405180910390fd5b601f604983901c169050919050565b600061010082106111d5576040517f08c379a00000000000000000000000000000000000000000000000000000000081526004018080602001828103825260208152602001807f707265765465616d506f73496e4c6561677565206f7574206f6620626f756e6481525060200191505060405180910390fd5b6a3fc00000000000000000001983169250604e82901b8317925082905092915050565b6000611203826108ad565b611275576040517f08c379a00000000000000000000000000000000000000000000000000000000081526004018080602001828103825260148152602001807f696e76616c696420706c6179657220737461746500000000000000000000000081525060200191505060405180910390fd5b613fff60ac83901c169050919050565b6000611290836108ad565b611302576040517f08c379a000000000000000000000000000000000000000000000000000000000815260040180806020018281038252601a8152602001807f696e76616c696420706c6179657220706c61796572537461746500000000000081525060200191505060405180910390fd5b82905092915050565b600060208210611383576040517f08c379a000000000000000000000000000000000000000000000000000000000815260040180806020018281038252601c8152602001807f63757272656e7453686972744e756d206f7574206f6620626f756e640000000081525060200191505060405180910390fd5b6e0f80000000000000000000000000001983169250606f82901b8317925082905092915050565b60006408000000008210611426576040517f08c379a000000000000000000000000000000000000000000000000000000000815260040180806020018281038252601a8152602001807f6c61737453616c65426c6f636b206f7574206f6620626f756e6400000000000081525060200191505060405180910390fd5b651140000000001983169250602682901b8317925082905092915050565b6000631000000082106114bf576040517f08c379a000000000000000000000000000000000000000000000000000000000815260040180806020018281038252601b8152602001807f63757272656e745465616d496478206f7574206f6620626f756e64000000000081525060200191505060405180910390fd5b71fffffff000000000000000000000000000001983169250607482901b8317925082905092915050565b60006114f4826108ad565b611566576040517f08c379a00000000000000000000000000000000000000000000000000000000081526004018080602001828103825260148152602001807f696e76616c696420706c6179657220737461746500000000000000000000000081525060200191505060405180910390fd5b6407ffffffff602683901c169050919050565b61158161188c565b61158a826108ad565b6115fc576040517f08c379a00000000000000000000000000000000000000000000000000000000081526004018080602001828103825260148152602001807f696e76616c696420706c6179657220737461746500000000000000000000000081525060200191505060405180910390fd5b61160582610a7d565b8160006005811061161257fe5b602002019061ffff16908161ffff168152505061162e826109f0565b8160016005811061163b57fe5b602002019061ffff16908161ffff168152505061165782610f2a565b8160026005811061166457fe5b602002019061ffff16908161ffff168152505061168082611043565b8160036005811061168d57fe5b602002019061ffff16908161ffff16815250506116a9826108c2565b816004600581106116b657fe5b602002019061ffff16908161ffff1681525050919050565b60006116d9826108ad565b61174b576040517f08c379a00000000000000000000000000000000000000000000000000000000081526004018080602001828103825260148152602001807f696e76616c696420706c6179657220737461746500000000000000000000000081525060200191505060405180910390fd5b630fffffff607483901c169050919050565b6000611768826108ad565b6117da576040517f08c379a00000000000000000000000000000000000000000000000000000000081526004018080602001828103825260148152602001807f696e76616c696420706c6179657220737461746500000000000000000000000081525060200191505060405180910390fd5b601f606f83901c169050919050565b6000630fffffff609083901c169050919050565b6000611808826108ad565b61187a576040517f08c379a00000000000000000000000000000000000000000000000000000000081526004018080602001828103825260148152602001807f696e76616c696420706c6179657220737461746500000000000000000000000081525060200191505060405180910390fd5b6301ffffff605683901c169050919050565b6040518060a0016040528060059060208202803883398082019150509050509056fe6d6f6e74684f664269727468496e556e697854696d65206f7574206f6620626f756e647072657653686972744e756d496e4c6561677565206f7574206f6620626f756e64a265627a7a723058204d273fa7b8726c50a88ac957536821024d1d626d1bcbbb47a330f14d722fe88664736f6c63430005090032",
  "source": "pragma solidity >=0.4.21 <0.6.0;\n\n/// @title the state of a player\ncontract PlayerState {\n    function isValidPlayerState(uint256 state) public pure returns (bool) {\n        return getPlayerId(state) != 0;\n    }\n\n    /**\n     * @dev encoding:\n     * 5x14bits\n     * skills                  = 5x14 bits\n     * monthOfBirthInUnixTime  = 14 bits\n     * playerIdx               = 28 bits\n     * currentTeamIdx          = 28 bits\n     * currentShirtNum         =  5 bits\n     * prevLeagueIdx           = 25 bits\n     * prevTeamPosInLeague     =  8 bits\n     * prevShirtNumInLeague    =  5 bits // TODO: remove: unused\n     * lastSaleBlocknum        = 35 bits\n     * available               = 40 bits\n     */\n    function playerStateCreate(\n        uint256 defence,\n        uint256 speed,\n        uint256 pass,\n        uint256 shoot,\n        uint256 endurance,\n        uint256 monthOfBirthInUnixTime,\n        uint256 playerId,\n        uint256 currentTeamId,\n        uint256 currentShirtNum,\n        uint256 prevLeagueId,\n        uint256 prevTeamPosInLeague,\n        uint256 prevShirtNumInLeague,\n        uint256 lastSaleBlock\n    )\n        public\n        pure\n        returns (uint256 state)\n    {\n        require(defence < 2**14, \"defence out of bound\");\n        require(speed < 2**14, \"defence out of bound\");\n        require(pass < 2**14, \"defence out of bound\");\n        require(shoot < 2**14, \"defence out of bound\");\n        require(endurance < 2**14, \"defence out of bound\");\n        require(monthOfBirthInUnixTime < 2**14, \"monthOfBirthInUnixTime out of bound\");\n        require(playerId > 0 && playerId < 2**28, \"playerId out of bound\");\n        require(prevShirtNumInLeague < 2**5, \"prevShirtNumInLeague out of bound\");\n        state = uint256(defence) << 242;\n        state |= uint256(speed) << 228;\n        state |= uint256(pass) << 214;\n        state |= uint256(shoot) << 200;\n        state |= uint256(endurance) << 186;\n        state |= uint256(monthOfBirthInUnixTime) << 172;\n        state |= uint256(playerId) << 144;\n        state = setCurrentTeamId(state, currentTeamId);\n        state = setCurrentShirtNum(state, currentShirtNum);\n        state = setPrevLeagueId(state, prevLeagueId);\n        state = setPrevTeamPosInLeague(state, prevTeamPosInLeague);\n        state |= uint256(prevShirtNumInLeague) << 73;\n        state = setLastSaleBlock(state, lastSaleBlock);\n    }\n\n    function setPrevLeagueId(uint256 state, uint256 value) public pure returns (uint256) {\n        require(value < 2**25, \"prevLeagueIdx out of bound\");\n        state &= ~uint256(2**25-1 << 86);\n        state |= uint256(value) << 86;\n        return state;\n    }\n\n    function setPrevTeamPosInLeague(uint256 state, uint256 value) public pure returns (uint256) {\n        require(value < 2**8, \"prevTeamPosInLeague out of bound\");\n        state &= ~uint256(2**8-1 << 78);\n        state |= uint256(value) << 78;\n        return state;\n    }\n    \n    /// increase the skills of delta\n    function playerStateEvolve(uint256 playerState, uint16 delta) public pure returns (uint256 evolvedState) {\n        require(isValidPlayerState(playerState), \"invalid player playerState\");\n        return playerState;\n        uint256 defence = getDefence(playerState) + delta;\n        uint256 speed = getSpeed(playerState) + delta;\n        uint256 pass = getPass(playerState) + delta;\n        uint256 shoot = getShoot(playerState) + delta;\n        uint256 endurance = getEndurance(playerState) + delta;\n        require(defence < 2**14, \"defence out of bound\");\n        require(speed < 2**14, \"speed out of bound\");\n        require(pass < 2**14, \"pass out of bound\");\n        require(shoot < 2**14, \"shoot out of bound\");\n        require(endurance < 2**14, \"endurance out of bound\");\n        evolvedState = playerState;\n        evolvedState = evolvedState & (uint256(-1) ^ (0x3fff << 242)) | uint256(defence) << 242;\n        evolvedState = evolvedState & (uint256(-1) ^ (0x3fff << 228)) | uint256(speed) << 228;\n        evolvedState = evolvedState & (uint256(-1) ^ (0x3fff << 214)) | uint256(pass) << 214;\n        evolvedState = evolvedState & (uint256(-1) ^ (0x3fff << 200)) | uint256(shoot) << 200;\n        evolvedState = evolvedState & (uint256(-1) ^ (0x3fff << 186)) | uint256(endurance) << 186;\n    }\n\n    function setCurrentTeamId(uint256 playerState, uint256 teamId) public pure returns (uint256) {\n        require(teamId < 2**28, \"currentTeamIdx out of bound\");\n        playerState &= ~uint256(2**28-1 << 116);\n        playerState |= uint256(teamId) << 116;\n        return playerState;\n    }\n\n    function setCurrentShirtNum(uint256 state, uint256 currentShirtNum) public pure returns (uint256) {\n        require(currentShirtNum < 2**5, \"currentShirtNum out of bound\");\n        state &= ~uint256(2**5-1 << 111);\n        state |= uint256(currentShirtNum) << 111;\n        return state;\n    }\n\n    function setLastSaleBlock(uint256 state, uint256 lastSaleBlock) public pure returns (uint256) {\n        require(lastSaleBlock < 2**35, \"lastSaleBlock out of bound\");\n        state &= ~uint256(2*35-1 << 38);\n        state |= uint256(lastSaleBlock) << 38;\n        return state;\n    }\n\n    function getLastSaleBlock(uint256 playerState) public pure returns (uint256) {\n        require(isValidPlayerState(playerState), \"invalid player state\");\n        return uint256(playerState >> 38 & 0x7ffffffff);\n    }\n\n    function getPrevShirtNumInLeague(uint256 playerState) public pure returns (uint256) {\n        require(isValidPlayerState(playerState), \"invalid player state\");\n        return uint256(playerState >> 73 & 0x1f);\n    }\n\n    function getPrevTeamPosInLeague(uint256 playerState) public pure returns (uint256) {\n        require(isValidPlayerState(playerState), \"invalid player state\");\n        return uint256(playerState >> 78 & 0xff);\n    }\n\n    function getPrevLeagueId(uint256 playerState) public pure returns (uint256) {\n        require(isValidPlayerState(playerState), \"invalid player state\");\n        return uint256(playerState >> 86 & 0x1ffffff);\n    }\n\n    function getCurrentShirtNum(uint256 playerState) public pure returns (uint256) {\n        require(isValidPlayerState(playerState), \"invalid player state\");\n        return uint256(playerState >> 111 & 0x1f);\n    }\n\n    function getCurrentTeamId(uint256 playerState) public pure returns (uint256) {\n        require(isValidPlayerState(playerState), \"invalid player state\");\n        return uint256(playerState >> 116 & 0xfffffff);\n    }\n\n    function getPlayerId(uint256 playerState) public pure returns (uint256) {\n        return uint256(playerState >> 144 & 0xfffffff);\n    }\n\n    function getMonthOfBirthInUnixTime(uint256 playerState) public pure returns (uint256) {\n        require(isValidPlayerState(playerState), \"invalid player state\");\n        return uint256(playerState >> 172 & 0x3fff);\n    }\n\n    function getDefence(uint256 playerState) public pure returns (uint256) {\n        require(isValidPlayerState(playerState), \"invalid player state\");\n        return uint256(playerState >> 242 & 0x3fff);\n    }\n    \n    function getSpeed(uint256 playerState) public pure returns (uint256) {\n        require(isValidPlayerState(playerState), \"invalid player state\");\n        return uint256(playerState >> 228 & 0x3fff);\n    }\n\n    function getPass(uint256 playerState) public pure returns (uint256) {\n        require(isValidPlayerState(playerState), \"invalid player state\");\n        return uint256(playerState >> 214 & 0x3fff);\n    }\n\n    function getShoot(uint256 playerState) public pure returns (uint256) {\n        require(isValidPlayerState(playerState), \"invalid player state\");\n        return uint256(playerState >> 200 & 0x3fff);\n    }\n\n    function getEndurance(uint256 playerState) public pure returns (uint256) {\n        require(isValidPlayerState(playerState), \"invalid player state\");\n        return uint256(playerState >> 186 & 0x3fff);\n    }\n\n    function getSkills(uint256 playerState) public pure returns (uint256) {\n        require(isValidPlayerState(playerState), \"invalid player state\");\n        return playerState >> 186;\n    }\n\n    function getSkillsVec(uint256 playerState) public pure returns (uint16[5] memory skills) {\n        require(isValidPlayerState(playerState), \"invalid player state\");\n        skills[0] = uint16(getDefence(playerState));\n        skills[1] = uint16(getSpeed(playerState));\n        skills[2] = uint16(getPass(playerState));\n        skills[3] = uint16(getShoot(playerState));\n        skills[4] = uint16(getEndurance(playerState));\n    }\n\n    /// @dev Sets the number at a given index in a serialized uint256\n    function setNumAtIndex(uint value, uint serialized, uint8 index, uint bits)\n        internal\n        pure\n        returns(uint)\n    {\n        uint maxnum = 1<<bits; // 2**bits\n        require(value < maxnum, \"Value too large to fit in available space\");\n        uint b = bits*index;\n        uint mask = (1 << bits)-1; // (2**bits)-1\n        serialized &= ~(mask << b); // clear all bits at index\n        return serialized + (value << b);\n    }\n}",
  "sourcePath": "/home/asini/workspace/crypto-soccer/truffle-core/contracts/state/PlayerState.sol",
  "compiler": {
    "name": "solc",
    "version": "0.5.9+commit.e560f70d.Emscripten.clang"
  },
  "schemaVersion": "3.0.10",
  "updatedAt": "2019-07-18T13:21:26.789Z",
  "devdoc": {
    "methods": {
      "playerStateCreate(uint256,uint256,uint256,uint256,uint256,uint256,uint256,uint256,uint256,uint256,uint256,uint256,uint256)": {
        "details": "encoding: 5x14bits skills                  = 5x14 bits monthOfBirthInUnixTime  = 14 bits playerIdx               = 28 bits currentTeamIdx          = 28 bits currentShirtNum         =  5 bits prevLeagueIdx           = 25 bits prevTeamPosInLeague     =  8 bits prevShirtNumInLeague    =  5 bits // TODO: remove: unused lastSaleBlocknum        = 35 bits available               = 40 bits"
      }
    },
    "title": "the state of a player"
  },
  "userdoc": {
    "methods": {
      "playerStateEvolve(uint256,uint16)": {
        "notice": "increase the skills of delta"
      }
    }
  }
}